002020106480000006026PLAN PREFERIDO TVD            2012-06-162012-06-250000000002BAJA SIN CARGO                2012-06-259999-01-01P
002020106590000003516PLAN ENTRADA TVD              2007-02-282008-01-290000000002BAJA SIN CARGO                2008-01-299999-01-01P
002020106590000003516PLAN ENTRADA TVD              2007-02-282008-01-290000000527ALTA COMPLEMENTO 4 MESES      2007-02-282008-01-29P
002020106590000003520PLAN CINE TVD                 2007-03-012008-01-290000000001ALTA                          2007-03-012008-01-29P
002020106590000003520PLAN CINE TVD                 2007-03-012008-01-290000000002BAJA SIN CARGO                2008-01-299999-01-01P
002020106590000003706REVISTA TVD                   2007-07-112008-01-290000000002BAJA SIN CARGO                2008-01-299999-01-01P
002020106590000003706REVISTA TVD                   2007-07-112008-01-290000000001ALTA                          2007-07-112008-01-29P
002020106620000005458PLAN PREMIUM CDF TV NP        2012-06-222012-11-230000000073ALTA 3                        2012-06-222012-11-23P
002020106620000005459PLAN PREMIUM FOX SPORT TV NP  2012-06-222012-11-230000000001ALTA                          2012-06-222012-11-23P
002020106620000006026PLAN PREFERIDO TVD            2012-06-222012-11-230000000652ALTA 4                        2012-06-222012-11-23P
002020106660000003516PLAN ENTRADA TVD              2008-04-152008-12-220000000550ALTA COMPLEMENTO              2008-04-152008-12-22P
002020106700000005445PLAN FUTBOL DE PELICULA TVD   2009-11-102010-11-090000000002BAJA SIN CARGO                2010-11-099999-01-01P
002020106700000005445PLAN FUTBOL DE PELICULA TVD   2009-11-102010-11-090000000625ALTA COMPLEMENTO 2            2009-11-102010-11-09P
002020106700000005453PLAN TEMATICO FAMILIA TV NP   2009-11-102010-11-090000000002BAJA SIN CARGO                2010-11-099999-01-01P
002020106700000005453PLAN TEMATICO FAMILIA TV NP   2009-11-102010-11-090000000001ALTA                          2009-11-102010-11-09P
002020106700000005454PLAN TEMATICO MUNDO TV NP     2009-12-192010-11-090000000209ALTA 2                        2009-12-192010-11-09P
002020106700000005454PLAN TEMATICO MUNDO TV NP     2009-12-192010-11-090000000002BAJA SIN CARGO                2010-11-099999-01-01P
002020106700000005458PLAN PREMIUM CDF TV NP        2010-11-102011-02-020000000002BAJA SIN CARGO                2011-02-029999-01-01P
002020106700000005458PLAN PREMIUM CDF TV NP        2010-11-102011-02-020000000073ALTA 3                        2010-11-102011-02-02P
002020106700000005459PLAN PREMIUM FOX SPORT TV NP  2009-11-102011-02-020000000001ALTA                          2009-11-102011-02-02P
002020106700000005459PLAN PREMIUM FOX SPORT TV NP  2009-11-102011-02-020000000002BAJA SIN CARGO                2011-02-029999-01-01P
002020106700000006026PLAN PREFERIDO TVD            2010-11-102011-02-020000000002BAJA SIN CARGO                2011-02-029999-01-01P
002020106700000006026PLAN PREFERIDO TVD            2010-11-102011-02-020000000555ALTA DESCUENTO MOVISTAR       2010-11-102011-02-02P
002020106740000003516PLAN ENTRADA TVD              2008-06-022012-11-230000000550ALTA COMPLEMENTO              2008-06-022012-11-23P
002020106820000005460PLAN PREMIUM ADULTO TV NP     2012-07-252012-08-180000000224ALTA 50 X PROM                2012-07-252012-08-18P
002020106820000005460PLAN PREMIUM ADULTO TV NP     2012-07-252012-08-180000000017BAJA CON CARGO                2012-08-189999-01-01P
002020106820000005689TVD PACK CANALES DE REGALO    2012-06-272012-11-230000000006ALTA GRATUITA                 2012-06-272012-11-23P
002020106820000006026PLAN PREFERIDO TVD            2012-06-272012-11-230000000625ALTA COMPLEMENTO 2            2012-06-272012-11-23P
002020106830000005444PLAN CINEMANIA TVD            2009-12-232012-04-160000000143ALTA COMPLEMENTO 3            2009-12-232012-04-16P
002020106830000005444PLAN CINEMANIA TVD            2009-12-232012-04-160000000002BAJA SIN CARGO                2012-04-169999-01-01P
002020106830000005453PLAN TEMATICO FAMILIA TV NP   2009-12-232012-04-160000000001ALTA                          2009-12-232012-04-16P
002020106830000005453PLAN TEMATICO FAMILIA TV NP   2009-12-232012-04-160000000002BAJA SIN CARGO                2012-04-169999-01-01P
002020106830000005457PLAN PREMIUM FOX MAS TV NP    2009-12-232011-06-070000000001ALTA                          2009-12-232011-06-07P
002020106830000005457PLAN PREMIUM FOX MAS TV NP    2009-12-232011-06-070000000002BAJA SIN CARGO                2011-06-079999-01-01P
002020106830000006166PLAN PREMIUM FOX MAS PACK     2011-06-082012-04-160000000001ALTA                          2011-06-082012-04-16P
002020106830000006166PLAN PREMIUM FOX MAS PACK     2011-06-082012-04-160000000002BAJA SIN CARGO                2012-04-169999-01-01P
002020106870000005444PLAN CINEMANIA TVD            2010-04-302012-01-100000000555ALTA DESCUENTO MOVISTAR       2010-04-302012-01-10P
002020106870000005444PLAN CINEMANIA TVD            2010-04-302012-01-100000000002BAJA SIN CARGO                2012-01-109999-01-01P
002020106870000006025PLAN BASICO TVD               2012-01-112012-03-130000000133ALTA PROM TV SINGLE           2012-01-112012-03-13P
002020106870000006025PLAN BASICO TVD               2012-01-112012-03-130000000002BAJA SIN CARGO                2012-03-139999-01-01P
002020106940000005444PLAN CINEMANIA TVD            2009-11-172011-08-300000000143ALTA COMPLEMENTO 3            2009-11-172011-08-30P
002020106940000005444PLAN CINEMANIA TVD            2009-11-172011-08-300000000002BAJA SIN CARGO                2011-08-309999-01-01P
002020106940000006026PLAN PREFERIDO TVD            2011-08-312012-07-090000000002BAJA SIN CARGO                2012-07-099999-01-01P
002020106940000006026PLAN PREFERIDO TVD            2011-08-312012-07-090000000625ALTA COMPLEMENTO 2            2011-08-312012-07-09P
002020106940000006166PLAN PREMIUM FOX MAS PACK     2011-08-312012-07-090000000001ALTA                          2011-08-312012-07-09P
002020106940000006166PLAN PREMIUM FOX MAS PACK     2011-08-312012-07-090000000002BAJA SIN CARGO                2012-07-099999-01-01P
002020107030000005446PLAN ENTRADA TVD              2010-02-202012-02-290000000001ALTA                          2010-02-202012-02-29P
002020107030000005446PLAN ENTRADA TVD              2010-02-202012-02-290000000002BAJA SIN CARGO                2012-02-299999-01-01P
002020107030000005452PLAN TEMATICO CINE TV NP      2010-02-202012-02-290000000002BAJA SIN CARGO                2012-02-299999-01-01P
002020107030000005452PLAN TEMATICO CINE TV NP      2010-02-202012-02-290000000209ALTA 2                        2010-02-202012-02-29P
002020107030000005456PLAN PREMIUM HBOMAX TV NP     2012-03-012012-11-230000000056ALTA 2 MESES GRATIS           2012-03-012012-11-23P
002020107030000006026PLAN PREFERIDO TVD            2012-03-012012-11-230000000625ALTA COMPLEMENTO 2            2012-03-012012-11-23P
002020107040000005975PLAN SENALES HD               2011-05-252011-10-240000000001ALTA                          2011-05-252011-10-24P
002020107040000005975PLAN SENALES HD               2011-05-252011-10-240000000002BAJA SIN CARGO                2011-10-249999-01-01P
002020107040000006075PLAN TV TOP                   2011-05-252011-10-240000000002BAJA SIN CARGO                2011-10-249999-01-01P
002020107040000006075PLAN TV TOP                   2011-05-252011-10-240000000622ALTA DUO BA                   2011-05-252011-10-24P
002020107160000005446PLAN ENTRADA TVD              2010-02-262011-05-280000000001ALTA                          2010-02-262011-05-28P
002020107160000005446PLAN ENTRADA TVD              2010-02-262011-05-280000000002BAJA SIN CARGO                2011-05-289999-01-01P
002020107160000005452PLAN TEMATICO CINE TV NP      2010-12-062011-05-280000000209ALTA 2                        2010-12-062011-05-28P
002020107160000005452PLAN TEMATICO CINE TV NP      2010-12-062011-05-280000000002BAJA SIN CARGO                2011-05-289999-01-01P
002020107160000005457PLAN PREMIUM FOX MAS TV NP    2010-12-062011-05-280000000237ALTA PROMOCION 6 MESES        2010-12-062011-05-28P
002020107160000005457PLAN PREMIUM FOX MAS TV NP    2010-12-062011-05-280000000002BAJA SIN CARGO                2011-05-289999-01-01P
002020107160000005458PLAN PREMIUM CDF TV NP        2011-05-292011-11-290000000073ALTA 3                        2011-05-292011-11-29P
002020107160000005458PLAN PREMIUM CDF TV NP        2011-05-292011-11-290000000002BAJA SIN CARGO                2011-11-299999-01-01P
002020107160000005458PLAN PREMIUM CDF TV NP        2012-04-142012-09-100000000073ALTA 3                        2012-04-142012-09-10P
002020107160000005458PLAN PREMIUM CDF TV NP        2012-04-142012-09-100000000002BAJA SIN CARGO                2012-09-109999-01-01P
002020107160000005458PLAN PREMIUM CDF TV NP        2010-02-262010-12-050000000001ALTA                          2010-02-262010-12-05P
002020107160000005458PLAN PREMIUM CDF TV NP        2010-02-262010-12-050000000002BAJA SIN CARGO                2010-12-059999-01-01P
002020107160000005459PLAN PREMIUM FOX SPORT TV NP  2011-11-302012-09-100000000001ALTA                          2011-11-302012-09-10P
002020107160000005459PLAN PREMIUM FOX SPORT TV NP  2011-11-302012-09-100000000002BAJA SIN CARGO                2012-09-109999-01-01P
002020107160000005459PLAN PREMIUM FOX SPORT TV NP  2010-02-262010-12-050000000001ALTA                          2010-02-262010-12-05P
002020107160000005459PLAN PREMIUM FOX SPORT TV NP  2010-02-262010-12-050000000002BAJA SIN CARGO                2010-12-059999-01-01P
002020107160000006026PLAN PREFERIDO TVD            2011-05-292012-09-100000000002BAJA SIN CARGO                2012-09-109999-01-01P
002020107160000006026PLAN PREFERIDO TVD            2011-05-292012-09-100000000625ALTA COMPLEMENTO 2            2011-05-292012-09-10P
002020107180000006026PLAN PREFERIDO TVD            2012-06-272012-11-230000000514ALTA CON DTH                  2012-06-272012-11-23P
002020107190000005458PLAN PREMIUM CDF TV NP        2011-12-292012-11-230000000073ALTA 3                        2011-12-292012-11-23P
002020107190000005459PLAN PREMIUM FOX SPORT TV NP  2011-12-142012-11-230000000001ALTA                          2011-12-142012-11-23P
002020107190000005975PLAN SENALES HD               2011-10-062012-11-230000000001ALTA                          2011-10-062012-11-23P
002020107190000006026PLAN PREFERIDO TVD            2011-10-052012-11-230000000625ALTA COMPLEMENTO 2            2011-10-052012-11-23P
002020107220000005446PLAN ENTRADA TVD              2009-12-092010-11-300000000143ALTA COMPLEMENTO 3            2009-12-092010-11-30P
002020107220000005446PLAN ENTRADA TVD              2009-12-092010-11-300000000002BAJA SIN CARGO                2010-11-309999-01-01P
002020107220000006025PLAN BASICO TVD               2010-12-062011-09-020000000002BAJA SIN CARGO                2011-09-029999-01-01P
002020107220000006025PLAN BASICO TVD               2010-12-062011-09-020000000133ALTA PROM TV SINGLE           2010-12-062011-09-02P
002020107230000003516PLAN ENTRADA TVD              2008-02-252008-08-100000000465ALTA COMPLEMENTO 1X100        2008-02-252008-08-10P
002020107230000003516PLAN ENTRADA TVD              2008-02-252008-08-100000000002BAJA SIN CARGO                2008-08-109999-01-01P
002020107230000003527PLAN FSP TVD                  2008-02-252008-08-100000000002BAJA SIN CARGO                2008-08-109999-01-01P
002020107230000003527PLAN FSP TVD                  2008-02-252008-08-100000000260_ ALTA                        2008-02-252008-08-10P
002020107230000003528PLAN CDF TVD                  2008-02-252008-08-100000000001ALTA                          2008-02-252008-08-10P
002020107230000003528PLAN CDF TVD                  2008-02-252008-08-100000000002BAJA SIN CARGO                2008-08-109999-01-01P
002020107250000006026PLAN PREFERIDO TVD            2012-07-042012-11-230000000514ALTA CON DTH                  2012-07-042012-11-23P
002020107290000003516PLAN ENTRADA TVD              2007-05-292010-10-080000000421COMPLEMENTO DUO ALTA          2007-05-292010-10-08P
002020107290000003516PLAN ENTRADA TVD              2007-05-292010-10-080000000002BAJA SIN CARGO                2010-10-089999-01-01P
002020107290000003520PLAN CINE TVD                 2007-05-292010-10-080000000001ALTA                          2007-05-292010-10-08P
002020107290000003520PLAN CINE TVD                 2007-05-292010-10-080000000002BAJA SIN CARGO                2010-10-089999-01-01P
002020107290000005689TVD PACK CANALES DE REGALO    2009-07-222010-10-080000000006ALTA GRATUITA                 2009-07-222010-10-08P
002020107290000005689TVD PACK CANALES DE REGALO    2009-07-222010-10-080000000002BAJA SIN CARGO                2010-10-089999-01-01P
002020107310000005458PLAN PREMIUM CDF TV NP        2011-06-162012-11-230000000073ALTA 3                        2011-06-162012-11-23P
002020107310000005459PLAN PREMIUM FOX SPORT TV NP  2012-05-022012-11-230000000001ALTA                          2012-05-022012-11-23P
002020107310000006026PLAN PREFERIDO TVD            2011-06-162012-11-230000000625ALTA COMPLEMENTO 2            2011-06-162012-11-23P
002020107350000005445PLAN FUTBOL DE PELICULA TVD   2010-01-262010-04-160000000002BAJA SIN CARGO                2010-04-169999-01-01P
002020107350000005445PLAN FUTBOL DE PELICULA TVD   2010-01-262010-04-160000000143ALTA COMPLEMENTO 3            2010-01-262010-04-16P
002020107350000005446PLAN ENTRADA TVD              2010-04-172010-07-160000000555ALTA DESCUENTO MOVISTAR       2010-04-172010-07-16P
002020107350000005446PLAN ENTRADA TVD              2010-04-172010-07-160000000002BAJA SIN CARGO                2010-07-169999-01-01P
002020107350000005458PLAN PREMIUM CDF TV NP        2010-04-172010-07-160000000001ALTA                          2010-04-172010-07-16P
002020107350000005458PLAN PREMIUM CDF TV NP        2010-04-172010-07-160000000002BAJA SIN CARGO                2010-07-169999-01-01P
002020107360000005446PLAN ENTRADA TVD              2010-05-082011-06-130000000002BAJA SIN CARGO                2011-06-139999-01-01P
002020107360000005446PLAN ENTRADA TVD              2010-05-082011-06-130000000555ALTA DESCUENTO MOVISTAR       2010-05-082011-06-13P
002020107360000006026PLAN PREFERIDO TVD            2011-06-142012-11-230000000625ALTA COMPLEMENTO 2            2011-06-142012-11-23P
002020107390000005458PLAN PREMIUM CDF TV NP        2011-04-162011-07-270000000073ALTA 3                        2011-04-162011-07-27P
002020107390000005458PLAN PREMIUM CDF TV NP        2011-04-162011-07-270000000002BAJA SIN CARGO                2011-07-279999-01-01P
002020107390000005458PLAN PREMIUM CDF TV NP        2012-04-292012-10-030000000002BAJA SIN CARGO                2012-10-039999-01-01P
002020107390000005458PLAN PREMIUM CDF TV NP        2012-04-292012-10-030000000073ALTA 3                        2012-04-292012-10-03P
002020107390000006026PLAN PREFERIDO TVD            2011-04-162011-06-060000000550ALTA COMPLEMENTO              2011-04-162011-06-06P
002020107390000006026PLAN PREFERIDO TVD            2011-04-162011-06-060000000002BAJA SIN CARGO                2011-06-069999-01-01P
002020107390000006026PLAN PREFERIDO TVD            2011-06-072012-11-230000000625ALTA COMPLEMENTO 2            2011-06-072012-11-23P
002020107460000006026PLAN PREFERIDO TVD            2010-09-082011-10-280000000126PROM 4 MESES TV PAQUETIZADA   2010-09-082011-10-28P
002020107460000006026PLAN PREFERIDO TVD            2010-09-082011-10-280000000002BAJA SIN CARGO                2011-10-289999-01-01P
002020107470000005447PLAN PLUS TVD                 2010-04-232010-11-180000000253ALTA PROMOCION                2010-04-232010-11-18P
002020107470000005447PLAN PLUS TVD                 2010-04-232010-11-180000000002BAJA SIN CARGO                2010-11-189999-01-01P
002020107470000006025PLAN BASICO TVD               2010-11-192011-01-210000000002BAJA SIN CARGO                2011-01-219999-01-01P
002020107470000006025PLAN BASICO TVD               2010-11-192011-01-210000000555ALTA DESCUENTO MOVISTAR       2010-11-192011-01-21P
002020107470000006026PLAN PREFERIDO TVD            2011-01-222011-10-280000000002BAJA SIN CARGO                2011-10-289999-01-01P
002020107470000006026PLAN PREFERIDO TVD            2011-01-222011-10-280000000555ALTA DESCUENTO MOVISTAR       2011-01-222011-10-28P
002020107680000005271PLAN CINEMANIA TVD            2008-10-082009-06-270000000002BAJA SIN CARGO                2009-06-279999-01-01P
002020107680000005271PLAN CINEMANIA TVD            2008-10-082009-06-270000000253ALTA PROMOCION                2008-10-082009-06-27P
002020107760000005444PLAN CINEMANIA TVD            2010-01-282010-09-120000000002BAJA SIN CARGO                2010-09-129999-01-01P
002020107760000005444PLAN CINEMANIA TVD            2010-01-282010-09-120000000143ALTA COMPLEMENTO 3            2010-01-282010-09-12P
002020107780000005445PLAN FUTBOL DE PELICULA TVD   2010-01-302010-07-260000000143ALTA COMPLEMENTO 3            2010-01-302010-07-26P
002020107780000005445PLAN FUTBOL DE PELICULA TVD   2010-01-302010-07-260000000002BAJA SIN CARGO                2010-07-269999-01-01P
002020107790000005446PLAN ENTRADA TVD              2009-05-052012-11-230000000625ALTA COMPLEMENTO 2            2009-05-052012-11-23P
002020107790000005689TVD PACK CANALES DE REGALO    2010-11-202012-11-230000000006ALTA GRATUITA                 2010-11-202012-11-23P
002020107790000005689TVD PACK CANALES DE REGALO    2009-07-232010-11-190000000006ALTA GRATUITA                 2009-07-232010-11-19P
002020107790000005689TVD PACK CANALES DE REGALO    2009-07-232010-11-190000000002BAJA SIN CARGO                2010-11-199999-01-01P
002020107840000003516PLAN ENTRADA TVD              2007-04-172012-11-230000000422COMPLEMENTO TRIO ALTA         2007-04-172012-11-23P
002020107840000003519PLAN FAMILIA TVD              2007-06-282012-11-230000000001ALTA                          2007-06-282012-11-23P
002020107840000003920PLAN MAS TVD                  2009-09-022012-11-230000000006ALTA GRATUITA                 2009-09-022012-11-23P
002020107840000003920PLAN MAS TVD                  2007-04-232009-09-010000000002BAJA SIN CARGO                2009-09-019999-01-01P
002020107840000003920PLAN MAS TVD                  2007-04-232009-09-010000000056ALTA 2 MESES GRATIS           2007-04-232009-09-01P
002020107890000005446PLAN ENTRADA TVD              2009-04-032009-09-220000000002BAJA SIN CARGO                2009-09-229999-01-01P
002020107890000005446PLAN ENTRADA TVD              2009-04-032009-09-220000000625ALTA COMPLEMENTO 2            2009-04-032009-09-22P
002020107890000005457PLAN PREMIUM FOX MAS TV NP    2009-04-032009-09-220000000056ALTA 2 MESES GRATIS           2009-04-032009-09-22P
002020107890000005457PLAN PREMIUM FOX MAS TV NP    2009-04-032009-09-220000000002BAJA SIN CARGO                2009-09-229999-01-01P
002020107910000005444PLAN CINEMANIA TVD            2010-02-042011-01-140000000002BAJA SIN CARGO                2011-01-149999-01-01P
002020107910000005444PLAN CINEMANIA TVD            2010-02-042011-01-140000000143ALTA COMPLEMENTO 3            2010-02-042011-01-14P
002020107950000006075PLAN TV TOP                   2012-07-192012-11-230000000405ALTA ALIANZA                  2012-07-192012-11-23P
002020107990000006075PLAN TV TOP                   2012-07-192012-11-230000000405ALTA ALIANZA                  2012-07-192012-11-23P
002020108000000006075PLAN TV TOP                   2012-07-182012-11-230000000405ALTA ALIANZA                  2012-07-182012-11-23P
002020108040000006075PLAN TV TOP                   2012-07-192012-11-230000000405ALTA ALIANZA                  2012-07-192012-11-23P
002020108100000005445PLAN FUTBOL DE PELICULA TVD   2009-11-162012-10-300000000002BAJA SIN CARGO                2012-10-309999-01-01P
002020108100000005445PLAN FUTBOL DE PELICULA TVD   2009-11-162012-10-300000000143ALTA COMPLEMENTO 3            2009-11-162012-10-30P
002020108160000006075PLAN TV TOP                   2012-07-192012-11-230000000405ALTA ALIANZA                  2012-07-192012-11-23P
002020108170000006075PLAN TV TOP                   2012-07-192012-11-230000000405ALTA ALIANZA                  2012-07-192012-11-23P
002020108190000003612PLAN TVD PLUS                 2007-05-082007-08-080000000002BAJA SIN CARGO                2007-08-089999-01-01P
002020108190000003612PLAN TVD PLUS                 2007-05-082007-08-080000000422COMPLEMENTO TRIO ALTA         2007-05-082007-08-08P
002020108190000003612PLAN TVD PLUS                 2007-08-082007-10-240000000002BAJA SIN CARGO                2007-10-249999-01-01P
002020108190000003612PLAN TVD PLUS                 2007-08-082007-10-240000000421COMPLEMENTO DUO ALTA          2007-08-082007-10-24P
002020108230000006026PLAN PREFERIDO TVD            2012-07-212012-11-230000000514ALTA CON DTH                  2012-07-212012-11-23P
002020108270000005456PLAN PREMIUM HBOMAX TV NP     2011-10-282011-11-300000000002BAJA SIN CARGO                2011-11-309999-01-01P
002020108270000005456PLAN PREMIUM HBOMAX TV NP     2011-10-282011-11-300000000209ALTA 2                        2011-10-282011-11-30P
002020108270000005458PLAN PREMIUM CDF TV NP        2011-08-202011-10-030000000073ALTA 3                        2011-08-202011-10-03P
002020108270000005458PLAN PREMIUM CDF TV NP        2011-08-202011-10-030000000002BAJA SIN CARGO                2011-10-039999-01-01P
002020108270000005458PLAN PREMIUM CDF TV NP        2011-10-282011-11-300000000002BAJA SIN CARGO                2011-11-309999-01-01P
002020108270000005458PLAN PREMIUM CDF TV NP        2011-10-282011-11-300000000073ALTA 3                        2011-10-282011-11-30P
002020108270000005458PLAN PREMIUM CDF TV NP        2012-07-142012-08-300000000073ALTA 3                        2012-07-142012-08-30P
002020108270000005458PLAN PREMIUM CDF TV NP        2012-07-142012-08-300000000002BAJA SIN CARGO                2012-08-309999-01-01P
002020108270000005458PLAN PREMIUM CDF TV NP        2012-10-212012-11-020000000652ALTA 4                        2012-10-212012-11-02P
002020108270000005458PLAN PREMIUM CDF TV NP        2012-10-212012-11-020000000002BAJA SIN CARGO                2012-11-029999-01-01P
002020108270000005459PLAN PREMIUM FOX SPORT TV NP  2012-04-022012-11-230000000235ALTA PROMOCION 4 MESES        2012-04-022012-11-23P
002020108270000005459PLAN PREMIUM FOX SPORT TV NP  2011-11-022011-11-300000000001ALTA                          2011-11-022011-11-30P
002020108270000005459PLAN PREMIUM FOX SPORT TV NP  2011-11-022011-11-300000000002BAJA SIN CARGO                2011-11-309999-01-01P
002020108270000005459PLAN PREMIUM FOX SPORT TV NP  2011-08-202011-10-210000000001ALTA                          2011-08-202011-10-21P
002020108270000005459PLAN PREMIUM FOX SPORT TV NP  2011-08-202011-10-210000000002BAJA SIN CARGO                2011-10-219999-01-01P
002020108270000005968PLAN CDF HD                   2012-11-032012-11-230000000652ALTA 4                        2012-11-032012-11-23P
002020108270000005975PLAN SENALES HD               2011-08-162011-10-230000000001ALTA                          2011-08-162011-10-23P
002020108270000005975PLAN SENALES HD               2011-08-162011-10-230000000002BAJA SIN CARGO                2011-10-239999-01-01P
002020108270000005975PLAN SENALES HD               2012-11-012012-11-230000000001ALTA                          2012-11-012012-11-23P
002020108270000006026PLAN PREFERIDO TVD            2011-08-162012-11-230000000625ALTA COMPLEMENTO 2            2011-08-162012-11-23P
002020108270000006217PLAN PREMIUM CDO              2012-10-212012-11-230000000001ALTA                          2012-10-212012-11-23P
002020108270000006282LNB OPTIMIZADO                2012-11-012012-11-230000000260_ ALTA                        2012-11-012012-11-23P
002020108280000003612PLAN TVD PLUS                 2006-07-102010-07-140000000461COMPLEM TRIO 2 MESES ALTA     2006-07-102010-07-14P
002020108280000003612PLAN TVD PLUS                 2006-07-102010-07-140000000002BAJA SIN CARGO                2010-07-149999-01-01P
002020108290000005446PLAN ENTRADA TVD              2010-04-222010-08-190000000002BAJA SIN CARGO                2010-08-199999-01-01P
002020108290000005446PLAN ENTRADA TVD              2010-04-222010-08-190000000001ALTA                          2010-04-222010-08-19P
002020108290000005452PLAN TEMATICO CINE TV NP      2010-05-042010-08-190000000209ALTA 2                        2010-05-042010-08-19P
002020108290000005452PLAN TEMATICO CINE TV NP      2010-05-042010-08-190000000002BAJA SIN CARGO                2010-08-199999-01-01P
002020108290000005457PLAN PREMIUM FOX MAS TV NP    2010-09-142011-12-250000000237ALTA PROMOCION 6 MESES        2010-09-142011-12-25P
002020108290000005457PLAN PREMIUM FOX MAS TV NP    2010-09-142011-12-250000000002BAJA SIN CARGO                2011-12-259999-01-01P
002020108290000005458PLAN PREMIUM CDF TV NP        2010-04-222010-05-030000000002BAJA SIN CARGO                2010-05-039999-01-01P
002020108290000005458PLAN PREMIUM CDF TV NP        2010-04-222010-05-030000000001ALTA                          2010-04-222010-05-03P
002020108290000006026PLAN PREFERIDO TVD            2012-06-262012-11-230000000625ALTA COMPLEMENTO 2            2012-06-262012-11-23P
002020108290000006026PLAN PREFERIDO TVD            2010-08-202012-06-250000000555ALTA DESCUENTO MOVISTAR       2010-08-202012-06-25P
002020108290000006026PLAN PREFERIDO TVD            2010-08-202012-06-250000000002BAJA SIN CARGO                2012-06-259999-01-01P
002020108300000006026PLAN PREFERIDO TVD            2012-07-212012-11-230000000514ALTA CON DTH                  2012-07-212012-11-23P
002020108360000003525PLAN HBO MAX TVD              2007-01-182008-02-110000000001ALTA                          2007-01-182008-02-11P
002020108360000003525PLAN HBO MAX TVD              2007-01-182008-02-110000000002BAJA SIN CARGO                2008-02-119999-01-01P
002020108360000003527PLAN FSP TVD                  2007-01-182007-05-310000000001ALTA                          2007-01-189999-01-01P
002020108360000003527PLAN FSP TVD                  2007-01-182007-05-310000000002BAJA SIN CARGO                2007-05-319999-01-01P
002020108360000003528PLAN CDF TVD                  2007-01-182008-02-110000000001ALTA                          2007-01-182008-02-11P
002020108360000003528PLAN CDF TVD                  2007-01-182008-02-110000000002BAJA SIN CARGO                2008-02-119999-01-01P
002020108360000003612PLAN TVD PLUS                 2007-01-182008-02-110000000422COMPLEMENTO TRIO ALTA         2007-01-182008-02-11P
002020108360000003612PLAN TVD PLUS                 2007-01-182008-02-110000000002BAJA SIN CARGO                2008-02-119999-01-01P
002020108360000003706REVISTA TVD                   2007-01-182008-02-110000000001ALTA                          2007-01-182008-02-11P
002020108360000003706REVISTA TVD                   2007-01-182008-02-110000000002BAJA SIN CARGO                2008-02-119999-01-01P
002020108360000003920PLAN MAS TVD                  2007-01-182008-02-110000000056ALTA 2 MESES GRATIS           2007-01-182008-02-11P
002020108360000003920PLAN MAS TVD                  2007-01-182008-02-110000000002BAJA SIN CARGO                2008-02-119999-01-01P
002020108370000005447PLAN PLUS TVD                 2010-04-302010-08-230000000555ALTA DESCUENTO MOVISTAR       2010-04-302010-08-23P
002020108370000005447PLAN PLUS TVD                 2010-04-302010-08-230000000002BAJA SIN CARGO                2010-08-239999-01-01P
002020108370000006025PLAN BASICO TVD               2010-08-242011-08-310000000555ALTA DESCUENTO MOVISTAR       2010-08-242011-08-31P
002020108370000006025PLAN BASICO TVD               2010-08-242011-08-310000000002BAJA SIN CARGO                2011-08-319999-01-01P
002020108380000003529PLAN HBO TVD                  2006-10-132008-01-080000000001ALTA                          2006-10-132008-01-08P
002020108380000003529PLAN HBO TVD                  2006-10-132008-01-080000000002BAJA SIN CARGO                2008-01-089999-01-01P
002020108380000003612PLAN TVD PLUS                 2006-07-212008-01-080000000093ALTA PACK                     2006-07-212008-01-08P
002020108380000003612PLAN TVD PLUS                 2006-07-212008-01-080000000002BAJA SIN CARGO                2008-01-089999-01-01P
002020108380000003694TRIO MI ILIM. 600K TVD PLUS   2006-07-212008-01-080000000459ALTA 2M Y 50 X 2M MOVISTAR    2006-07-212008-01-08P
002020108380000003694TRIO MI ILIM. 600K TVD PLUS   2006-07-212008-01-080000000002BAJA SIN CARGO                2008-01-089999-01-01P
002020108410000005447PLAN PLUS TVD                 2010-07-072010-10-290000000002BAJA SIN CARGO                2010-10-299999-01-01P
002020108410000005447PLAN PLUS TVD                 2010-07-072010-10-290000000641ALTA CON PLAN PLUS            2010-07-072010-10-29P
002020108410000005447PLAN PLUS TVD                 2010-05-032010-06-090000000641ALTA CON PLAN PLUS            2010-05-032010-06-09P
002020108410000005447PLAN PLUS TVD                 2010-05-032010-06-090000000002BAJA SIN CARGO                2010-06-099999-01-01P
002020108450000006026PLAN PREFERIDO TVD            2012-07-232012-07-230000000002BAJA SIN CARGO                2012-07-239999-01-01P
002020108450000006026PLAN PREFERIDO TVD            2012-07-232012-07-230000000555ALTA DESCUENTO MOVISTAR       2012-07-232012-07-23P
002020108450000006026PLAN PREFERIDO TVD            2012-07-232012-11-230000000135ALTA BA DESNUDA               2012-07-232012-11-23P
002020108470000005446PLAN ENTRADA TVD              2010-06-092010-07-030000000555ALTA DESCUENTO MOVISTAR       2010-06-092010-07-03P
002020108470000005446PLAN ENTRADA TVD              2010-06-092010-07-030000000002BAJA SIN CARGO                2010-07-039999-01-01P
002020108520000003516PLAN ENTRADA TVD              2008-07-102009-07-020000000002BAJA SIN CARGO                2009-07-029999-01-01P
002020108520000003516PLAN ENTRADA TVD              2008-07-102009-07-020000000625ALTA COMPLEMENTO 2            2008-07-102009-07-02P
002020108520000003519PLAN FAMILIA TVD              2008-07-102009-01-070000000073ALTA 3                        2008-07-102009-01-07P
002020108520000003519PLAN FAMILIA TVD              2008-07-102009-01-070000000002BAJA SIN CARGO                2009-01-079999-01-01P
002020108520000003520PLAN CINE TVD                 2008-07-102009-01-070000000073ALTA 3                        2008-07-102009-01-07P
002020108520000003520PLAN CINE TVD                 2008-07-102009-01-070000000002BAJA SIN CARGO                2009-01-079999-01-01P
002020108520000003529PLAN HBO TVD                  2008-07-102009-01-070000000001ALTA                          2008-07-102009-01-07P
002020108520000003529PLAN HBO TVD                  2008-07-102009-01-070000000002BAJA SIN CARGO                2009-01-079999-01-01P
002020108570000005446PLAN ENTRADA TVD              2010-05-182010-06-030000000001ALTA                          2010-05-182010-06-03P
002020108570000005446PLAN ENTRADA TVD              2010-05-182010-06-030000000002BAJA SIN CARGO                2010-06-039999-01-01P
002020108600000003525PLAN HBO MAX TVD              2008-02-122008-06-100000000002BAJA SIN CARGO                2008-06-109999-01-01P
002020108600000003525PLAN HBO MAX TVD              2008-02-122008-06-100000000408ALTA 50 X 4 MESES             2008-02-122008-06-10P
002020108600000003612PLAN TVD PLUS                 2008-02-122008-06-100000000002BAJA SIN CARGO                2008-06-109999-01-01P
002020108600000003612PLAN TVD PLUS                 2008-02-122008-06-100000000465ALTA COMPLEMENTO 1X100        2008-02-122008-06-10P
002020108610000006026PLAN PREFERIDO TVD            2012-08-022012-08-060000000002BAJA SIN CARGO                2012-08-069999-01-01P
002020108610000006026PLAN PREFERIDO TVD            2012-08-022012-08-060000000625ALTA COMPLEMENTO 2            2012-08-022012-08-06P
002020108630000006026PLAN PREFERIDO TVD            2012-08-082012-11-230000000514ALTA CON DTH                  2012-08-082012-11-23P
002020108680000005444PLAN CINEMANIA TVD            2010-04-152010-04-290000000002BAJA SIN CARGO                2010-04-299999-01-01P
002020108680000005444PLAN CINEMANIA TVD            2010-04-152010-04-290000000001ALTA                          2010-04-152010-04-29P
002020108800000005975PLAN SENALES HD               2012-08-222012-11-230000000001ALTA                          2012-08-222012-11-23P
002020108800000006023SERV TV DIGITAL FUNCIONARIOS  2012-08-222012-11-230000000006ALTA GRATUITA                 2012-08-222012-11-23P
002020108800000006282LNB OPTIMIZADO                2012-08-222012-11-230000000260_ ALTA                        2012-08-222012-11-23P
002020108820000003612PLAN TVD PLUS                 2007-06-262007-12-270000000002BAJA SIN CARGO                2007-12-279999-01-01P
002020108820000003612PLAN TVD PLUS                 2007-06-262007-12-270000000422COMPLEMENTO TRIO ALTA         2007-06-262007-12-27P
002020108960000003516PLAN ENTRADA TVD              2007-02-012008-10-130000000094ALTA FUNCIONARIO              2007-02-012008-10-13P
002020108960000003516PLAN ENTRADA TVD              2007-02-012008-10-130000000002BAJA SIN CARGO                2008-10-139999-01-01P
002020108960000003519PLAN FAMILIA TVD              2007-09-202008-10-130000000002BAJA SIN CARGO                2008-10-139999-01-01P
002020108960000003519PLAN FAMILIA TVD              2007-09-202008-10-130000000209ALTA 2                        2007-09-202008-10-13P
002020108960000003524PLAN FOX MAS TVD              2007-06-112008-10-130000000002BAJA SIN CARGO                2008-10-139999-01-01P
002020108960000003524PLAN FOX MAS TVD              2007-06-112008-10-130000000060ALTA 2 M X 50 PORCTO DESCTO   2007-06-112008-10-13P
002020108960000003524PLAN FOX MAS TVD              2007-06-052007-06-110000000060ALTA 2 M X 50 PORCTO DESCTO   2007-06-059999-01-01P
002020108960000003524PLAN FOX MAS TVD              2007-06-052007-06-110000000002BAJA SIN CARGO                2007-06-119999-01-01P
002020108960000003527PLAN FSP TVD                  2007-04-252008-10-130000000002BAJA SIN CARGO                2008-10-139999-01-01P
002020108960000003527PLAN FSP TVD                  2007-04-252008-10-130000000001ALTA                          2007-04-252008-10-13P
002020108960000003527PLAN FSP TVD                  2007-04-252007-04-250000000002BAJA SIN CARGO                2007-04-259999-01-01P
002020108960000003527PLAN FSP TVD                  2007-04-252007-04-250000000001ALTA                          2007-04-259999-01-01P
002020108960000003528PLAN CDF TVD                  2007-02-012008-10-130000000001ALTA                          2007-02-012008-10-13P
002020108960000003528PLAN CDF TVD                  2007-02-012008-10-130000000002BAJA SIN CARGO                2008-10-139999-01-01P
002020109150000003516PLAN ENTRADA TVD              2008-05-222009-07-010000000002BAJA SIN CARGO                2009-07-019999-01-01P
002020109150000003516PLAN ENTRADA TVD              2008-05-222009-07-010000000625ALTA COMPLEMENTO 2            2008-05-222009-07-01P
002020109150000003612PLAN TVD PLUS                 2007-11-062008-05-210000000002BAJA SIN CARGO                2008-05-219999-01-01P
002020109150000003612PLAN TVD PLUS                 2007-11-062008-05-210000000556ALTA COMPLEMENTO 2X100        2007-11-062008-05-21P
002020109200000003516PLAN ENTRADA TVD              2008-03-142009-03-020000000550ALTA COMPLEMENTO              2008-03-142009-03-02P
002020109200000003528PLAN CDF TVD                  2007-10-262008-03-190000000002BAJA SIN CARGO                2008-03-199999-01-01P
002020109200000003528PLAN CDF TVD                  2007-10-262008-03-190000000001ALTA                          2007-10-262008-03-19P
002020109200000003528PLAN CDF TVD                  2008-03-202009-03-020000000001ALTA                          2008-03-202009-03-02P
002020109200000003612PLAN TVD PLUS                 2007-07-122008-03-130000000002BAJA SIN CARGO                2008-03-139999-01-01P
002020109200000003612PLAN TVD PLUS                 2007-07-122008-03-130000000422COMPLEMENTO TRIO ALTA         2007-07-122008-03-13P
002020109560000005458PLAN PREMIUM CDF TV NP        2012-06-052012-11-230000000073ALTA 3                        2012-06-052012-11-23P
002020109560000005459PLAN PREMIUM FOX SPORT TV NP  2012-06-152012-11-230000000001ALTA                          2012-06-152012-11-23P
002020109560000006026PLAN PREFERIDO TVD            2012-05-312012-11-230000000625ALTA COMPLEMENTO 2            2012-05-312012-11-23P
002020109760000005444PLAN CINEMANIA TVD            2009-12-312012-04-150000000002BAJA SIN CARGO                2012-04-159999-01-01P
002020109760000005444PLAN CINEMANIA TVD            2009-12-312012-04-150000000143ALTA COMPLEMENTO 3            2009-12-312012-04-15P
002020109760000005458PLAN PREMIUM CDF TV NP        2011-12-292012-01-140000000073ALTA 3                        2011-12-292012-01-14P
002020109760000005458PLAN PREMIUM CDF TV NP        2011-12-292012-01-140000000002BAJA SIN CARGO                2012-01-149999-01-01P
002020109760000005459PLAN PREMIUM FOX SPORT TV NP  2011-11-292012-01-140000000001ALTA                          2011-11-292012-01-14P
002020109760000005459PLAN PREMIUM FOX SPORT TV NP  2011-11-292012-01-140000000002BAJA SIN CARGO                2012-01-149999-01-01P
002020109760000005459PLAN PREMIUM FOX SPORT TV NP  2012-03-262012-04-150000000017BAJA CON CARGO                2012-04-159999-01-01P
002020109760000005459PLAN PREMIUM FOX SPORT TV NP  2012-03-262012-04-150000000001ALTA                          2012-03-262012-04-15P
002020109760000006026PLAN PREFERIDO TVD            2012-04-162012-05-260000000625ALTA COMPLEMENTO 2            2012-04-162012-05-26P
002020109760000006026PLAN PREFERIDO TVD            2012-04-162012-05-260000000002BAJA SIN CARGO                2012-05-269999-01-01P
002020109800000005444PLAN CINEMANIA TVD            2009-05-272009-08-140000000625ALTA COMPLEMENTO 2            2009-05-272009-08-14P
002020109800000005444PLAN CINEMANIA TVD            2009-05-272009-08-140000000002BAJA SIN CARGO                2009-08-149999-01-01P
002020109800000005445PLAN FUTBOL DE PELICULA TVD   2009-04-302009-05-260000000625ALTA COMPLEMENTO 2            2009-04-302009-05-26P
002020109800000005445PLAN FUTBOL DE PELICULA TVD   2009-04-302009-05-260000000002BAJA SIN CARGO                2009-05-269999-01-01P
002020109800000005453PLAN TEMATICO FAMILIA TV NP   2009-04-302009-08-140000000001ALTA                          2009-04-302009-08-14P
002020109800000005453PLAN TEMATICO FAMILIA TV NP   2009-04-302009-08-140000000002BAJA SIN CARGO                2009-08-149999-01-01P
002020109800000005457PLAN PREMIUM FOX MAS TV NP    2009-05-242009-08-140000000002BAJA SIN CARGO                2009-08-149999-01-01P
002020109800000005457PLAN PREMIUM FOX MAS TV NP    2009-05-242009-08-140000000408ALTA 50 X 4 MESES             2009-05-242009-08-14P
002020109800000005459PLAN PREMIUM FOX SPORT TV NP  2009-04-302009-05-230000000002BAJA SIN CARGO                2009-05-239999-01-01P
002020109800000005459PLAN PREMIUM FOX SPORT TV NP  2009-04-302009-05-230000000001ALTA                          2009-04-302009-05-23P
002020110110000005444PLAN CINEMANIA TVD            2009-11-222012-11-230000000143ALTA COMPLEMENTO 3            2009-11-222012-11-23P
002020110120000005445PLAN FUTBOL DE PELICULA TVD   2010-03-122011-02-020000000001ALTA                          2010-03-122011-02-02P
002020110120000005445PLAN FUTBOL DE PELICULA TVD   2010-03-122011-02-020000000002BAJA SIN CARGO                2011-02-029999-01-01P
002020110120000005458PLAN PREMIUM CDF TV NP        2011-02-042012-09-080000000073ALTA 3                        2011-02-042012-09-08P
002020110120000005458PLAN PREMIUM CDF TV NP        2011-02-042012-09-080000000002BAJA SIN CARGO                2012-09-089999-01-01P
002020110120000005459PLAN PREMIUM FOX SPORT TV NP  2011-02-042012-09-080000000001ALTA                          2011-02-042012-09-08P
002020110120000005459PLAN PREMIUM FOX SPORT TV NP  2011-02-042012-09-080000000002BAJA SIN CARGO                2012-09-089999-01-01P
002020110120000005459PLAN PREMIUM FOX SPORT TV NP  2010-03-122011-02-020000000001ALTA                          2010-03-122011-02-02P
002020110120000005459PLAN PREMIUM FOX SPORT TV NP  2010-03-122011-02-020000000002BAJA SIN CARGO                2011-02-029999-01-01P
002020110120000006026PLAN PREFERIDO TVD            2011-02-032012-06-190000000002BAJA SIN CARGO                2012-06-199999-01-01P
002020110120000006026PLAN PREFERIDO TVD            2011-02-032012-06-190000000684ALTA PROM 6M TV SINGLE        2011-02-032012-06-19P
002020110120000006026PLAN PREFERIDO TVD            2012-06-202012-09-080000000002BAJA SIN CARGO                2012-09-089999-01-01P
002020110120000006026PLAN PREFERIDO TVD            2012-06-202012-09-080000000625ALTA COMPLEMENTO 2            2012-06-202012-09-08P
002020110330000005444PLAN CINEMANIA TVD            2010-03-052010-06-150000000002BAJA SIN CARGO                2010-06-159999-01-01P
002020110330000005444PLAN CINEMANIA TVD            2010-03-052010-06-150000000001ALTA                          2010-03-052010-06-15P
002020110410000005458PLAN PREMIUM CDF TV NP        2012-07-022012-09-250000000002BAJA SIN CARGO                2012-09-259999-01-01P
002020110410000005458PLAN PREMIUM CDF TV NP        2012-07-022012-09-250000000073ALTA 3                        2012-07-022012-09-25P
002020110410000006026PLAN PREFERIDO TVD            2012-06-292012-11-230000000625ALTA COMPLEMENTO 2            2012-06-292012-11-23P
002020110490000006026PLAN PREFERIDO TVD            2012-01-312012-11-230000000625ALTA COMPLEMENTO 2            2012-01-312012-11-23P
002020110500000006026PLAN PREFERIDO TVD            2011-12-202012-11-230000000625ALTA COMPLEMENTO 2            2011-12-202012-11-23P
002020110650000005446PLAN ENTRADA TVD              2010-04-202012-04-090000000002BAJA SIN CARGO                2012-04-099999-01-01P
002020110650000005446PLAN ENTRADA TVD              2010-04-202012-04-090000000001ALTA                          2010-04-202012-04-09P
002020110650000006026PLAN PREFERIDO TVD            2012-04-102012-11-230000000625ALTA COMPLEMENTO 2            2012-04-102012-11-23P
002020110670000005444PLAN CINEMANIA TVD            2010-01-162010-10-300000000143ALTA COMPLEMENTO 3            2010-01-162010-10-30P
002020110670000005444PLAN CINEMANIA TVD            2010-01-162010-10-300000000002BAJA SIN CARGO                2010-10-309999-01-01P
002020110690000005458PLAN PREMIUM CDF TV NP        2011-08-272012-11-230000000073ALTA 3                        2011-08-272012-11-23P
002020110690000005459PLAN PREMIUM FOX SPORT TV NP  2011-08-272012-11-230000000001ALTA                          2011-08-272012-11-23P
002020110690000005975PLAN SENALES HD               2011-08-272012-11-230000000001ALTA                          2011-08-272012-11-23P
002020110690000006075PLAN TV TOP                   2011-08-272012-11-230000000526ALTA VIRTUAL                  2011-08-272012-11-23P
002020110700000003524PLAN FOX MAS TVD              2006-12-082008-07-220000000002BAJA SIN CARGO                2008-07-229999-01-01P
002020110700000003524PLAN FOX MAS TVD              2006-12-082008-07-220000000006ALTA GRATUITA                 2006-12-082008-07-22P
002020110700000003524PLAN FOX MAS TVD              2008-07-232008-10-010000000001ALTA                          2008-07-232008-10-01P
002020110700000003524PLAN FOX MAS TVD              2008-07-232008-10-010000000002BAJA SIN CARGO                2008-10-019999-01-01P
002020110700000003525PLAN HBO MAX TVD              2006-12-082008-07-220000000002BAJA SIN CARGO                2008-07-229999-01-01P
002020110700000003525PLAN HBO MAX TVD              2006-12-082008-07-220000000006ALTA GRATUITA                 2006-12-082008-07-22P
002020110700000003525PLAN HBO MAX TVD              2008-07-232008-10-010000000001ALTA                          2008-07-232008-10-01P
002020110700000003525PLAN HBO MAX TVD              2008-07-232008-10-010000000002BAJA SIN CARGO                2008-10-019999-01-01P
002020110700000003527PLAN FSP TVD                  2008-07-232008-10-010000000002BAJA SIN CARGO                2008-10-019999-01-01P
002020110700000003527PLAN FSP TVD                  2008-07-232008-10-010000000260_ ALTA                        2008-07-232008-10-01P
002020110700000003527PLAN FSP TVD                  2006-12-082008-07-220000000002BAJA SIN CARGO                2008-07-229999-01-01P
002020110700000003527PLAN FSP TVD                  2006-12-082008-07-220000000006ALTA GRATUITA                 2006-12-082008-07-22P
002020110700000003528PLAN CDF TVD                  2008-07-232008-10-010000000002BAJA SIN CARGO                2008-10-019999-01-01P
002020110700000003528PLAN CDF TVD                  2008-07-232008-10-010000000001ALTA                          2008-07-232008-10-01P
002020110700000003528PLAN CDF TVD                  2006-12-082008-07-220000000006ALTA GRATUITA                 2006-12-082008-07-22P
002020110700000003528PLAN CDF TVD                  2006-12-082008-07-220000000002BAJA SIN CARGO                2008-07-229999-01-01P
002020110700000003612PLAN TVD PLUS                 2008-01-152008-10-010000000550ALTA COMPLEMENTO              2008-01-152008-10-01P
002020110700000003612PLAN TVD PLUS                 2008-01-152008-10-010000000002BAJA SIN CARGO                2008-10-019999-01-01P
002020110700000003612PLAN TVD PLUS                 2006-11-242008-01-140000000002BAJA SIN CARGO                2008-01-149999-01-01P
002020110700000003612PLAN TVD PLUS                 2006-11-242008-01-140000000059ALTA 6 MESES                  2006-11-242008-01-14P
002020110770000003524PLAN FOX MAS TVD              2008-01-082011-05-270000000001ALTA                          2008-01-082011-05-27P
002020110770000003524PLAN FOX MAS TVD              2008-01-082011-05-270000000002BAJA SIN CARGO                2011-05-279999-01-01P
002020110770000003525PLAN HBO MAX TVD              2008-01-082012-11-230000000001ALTA                          2008-01-082012-11-23P
002020110770000003527PLAN FSP TVD                  2008-01-082012-11-230000000001ALTA                          2008-01-082012-11-23P
002020110770000003528PLAN CDF TVD                  2008-01-082012-11-230000000001ALTA                          2008-01-082012-11-23P
002020110770000003612PLAN TVD PLUS                 2008-01-082012-11-230000000422COMPLEMENTO TRIO ALTA         2008-01-082012-11-23P
002020110770000003920PLAN MAS TVD                  2009-09-022012-11-230000000006ALTA GRATUITA                 2009-09-022012-11-23P
002020110770000003920PLAN MAS TVD                  2008-01-082009-09-010000000056ALTA 2 MESES GRATIS           2008-01-082009-09-01P
002020110770000003920PLAN MAS TVD                  2008-01-082009-09-010000000002BAJA SIN CARGO                2009-09-019999-01-01P
002020110770000006166PLAN PREMIUM FOX MAS PACK     2011-05-282012-11-230000000001ALTA                          2011-05-282012-11-23P
002020111010000003524PLAN FOX MAS TVD              2007-06-082011-05-270000000002BAJA SIN CARGO                2011-05-279999-01-01P
002020111010000003524PLAN FOX MAS TVD              2007-06-082011-05-270000000001ALTA                          2007-06-082011-05-27P
002020111010000003525PLAN HBO MAX TVD              2007-04-132012-11-230000000001ALTA                          2007-04-132012-11-23P
002020111010000003612PLAN TVD PLUS                 2006-11-202012-11-230000000499ALTA COMPLEMENTO TRIO FUNC    2006-11-202012-11-23P
002020111010000003920PLAN MAS TVD                  2009-04-252009-09-010000000002BAJA SIN CARGO                2009-09-019999-01-01P
002020111010000003920PLAN MAS TVD                  2009-04-252009-09-010000000001ALTA                          2009-04-252009-09-01P
002020111010000003920PLAN MAS TVD                  2009-09-022012-11-230000000006ALTA GRATUITA                 2009-09-022012-11-23P
002020111010000005459PLAN PREMIUM FOX SPORT TV NP  2009-02-142012-11-230000000001ALTA                          2009-02-142012-11-23P
002020111010000005975PLAN SENALES HD               2010-12-172012-11-230000000001ALTA                          2010-12-172012-11-23P
002020111010000006166PLAN PREMIUM FOX MAS PACK     2011-05-282012-11-230000000001ALTA                          2011-05-282012-11-23P
002020111030000005272PLAN FUTBOL DE PELICULA TVD   2008-10-082010-01-120000000253ALTA PROMOCION                2008-10-082010-01-12P
002020111030000005272PLAN FUTBOL DE PELICULA TVD   2008-10-082010-01-120000000002BAJA SIN CARGO                2010-01-129999-01-01P
002020111030000005689TVD PACK CANALES DE REGALO    2009-07-222010-01-120000000002BAJA SIN CARGO                2010-01-129999-01-01P
002020111030000005689TVD PACK CANALES DE REGALO    2009-07-222010-01-120000000006ALTA GRATUITA                 2009-07-222010-01-12P
002020111030000005689TVD PACK CANALES DE REGALO    2009-07-222010-01-120000000006ALTA GRATUITA                 2009-07-222010-01-12P
002020111030000005689TVD PACK CANALES DE REGALO    2009-07-222010-01-120000000002BAJA SIN CARGO                2010-01-129999-01-01P
002020111070000003527PLAN FSP TVD                  2008-02-192009-09-010000000260_ ALTA                        2008-02-192009-09-01P
002020111070000003527PLAN FSP TVD                  2008-02-192009-09-010000000002BAJA SIN CARGO                2009-09-019999-01-01P
002020111070000003528PLAN CDF TVD                  2007-11-232009-09-010000000001ALTA                          2007-11-232009-09-01P
002020111070000003528PLAN CDF TVD                  2007-11-232009-09-010000000002BAJA SIN CARGO                2009-09-019999-01-01P
002020111070000003612PLAN TVD PLUS                 2007-11-232009-09-010000000002BAJA SIN CARGO                2009-09-019999-01-01P
002020111070000003612PLAN TVD PLUS                 2007-11-232009-09-010000000550ALTA COMPLEMENTO              2007-11-232009-09-01P
002020111080000003516PLAN ENTRADA TVD              2008-09-202010-12-150000000002BAJA SIN CARGO                2010-12-159999-01-01P
002020111080000003516PLAN ENTRADA TVD              2008-09-202010-12-150000000625ALTA COMPLEMENTO 2            2008-09-202010-12-15P
002020111080000003520PLAN CINE TVD                 2008-09-202010-12-150000000002BAJA SIN CARGO                2010-12-159999-01-01P
002020111080000003520PLAN CINE TVD                 2008-09-202010-12-150000000073ALTA 3                        2008-09-202010-12-15P
002020111080000003527PLAN FSP TVD                  2008-09-202008-11-230000000260_ ALTA                        2008-09-202008-11-23P
002020111080000003527PLAN FSP TVD                  2008-09-202008-11-230000000002BAJA SIN CARGO                2008-11-239999-01-01P
002020111080000003528PLAN CDF TVD                  2008-09-202010-03-070000000001ALTA                          2008-09-202010-03-07P
002020111080000003528PLAN CDF TVD                  2008-09-202010-03-070000000002BAJA SIN CARGO                2010-03-079999-01-01P
002020111080000003547VISITA TECNICA                2009-01-122012-11-230000000209ALTA 2                        2009-01-122012-11-23P
002020111080000005453PLAN TEMATICO FAMILIA TV NP   2008-12-132010-12-150000000002BAJA SIN CARGO                2010-12-159999-01-01P
002020111080000005453PLAN TEMATICO FAMILIA TV NP   2008-12-132010-12-150000000001ALTA                          2008-12-132010-12-15P
002020111080000005454PLAN TEMATICO MUNDO TV NP     2009-07-132010-12-150000000002BAJA SIN CARGO                2010-12-159999-01-01P
002020111080000005454PLAN TEMATICO MUNDO TV NP     2009-07-132010-12-150000000209ALTA 2                        2009-07-132010-12-15P
002020111080000005459PLAN PREMIUM FOX SPORT TV NP  2010-03-082012-11-230000000001ALTA                          2010-03-082012-11-23P
002020111080000005689TVD PACK CANALES DE REGALO    2009-07-222012-11-230000000006ALTA GRATUITA                 2009-07-222012-11-23P
002020111080000006026PLAN PREFERIDO TVD            2010-12-162011-06-020000000555ALTA DESCUENTO MOVISTAR       2010-12-162011-06-02P
002020111080000006026PLAN PREFERIDO TVD            2010-12-162011-06-020000000002BAJA SIN CARGO                2011-06-029999-01-01P
002020111080000006026PLAN PREFERIDO TVD            2011-06-032012-11-230000000625ALTA COMPLEMENTO 2            2011-06-032012-11-23P
002020111090000003516PLAN ENTRADA TVD              2008-06-132012-07-110000000002BAJA SIN CARGO                2012-07-119999-01-01P
002020111090000003516PLAN ENTRADA TVD              2008-06-132012-07-110000000550ALTA COMPLEMENTO              2008-06-132012-07-11P
002020111090000005975PLAN SENALES HD               2012-07-122012-08-070000000001ALTA                          2012-07-122012-08-07P
002020111090000005975PLAN SENALES HD               2012-07-122012-08-070000000002BAJA SIN CARGO                2012-08-079999-01-01P
002020111090000006026PLAN PREFERIDO TVD            2012-07-122012-08-050000000550ALTA COMPLEMENTO              2012-07-122012-08-05P
002020111090000006026PLAN PREFERIDO TVD            2012-07-122012-08-050000000002BAJA SIN CARGO                2012-08-059999-01-01P
002020111090000006026PLAN PREFERIDO TVD            2012-08-062012-11-230000000625ALTA COMPLEMENTO 2            2012-08-062012-11-23P
002020111090000006070SALTA PLAN ENTRADA A PREFERIDO2010-08-092011-04-040000000237ALTA PROMOCION 6 MESES        2010-08-092011-04-04P
002020111090000006070SALTA PLAN ENTRADA A PREFERIDO2010-08-092011-04-040000000002BAJA SIN CARGO                2011-04-049999-01-01P
002020111090000006282LNB OPTIMIZADO                2012-07-122012-08-070000000002BAJA SIN CARGO                2012-08-079999-01-01P
002020111090000006282LNB OPTIMIZADO                2012-07-122012-08-070000000260_ ALTA                        2012-07-122012-08-07P
002020111140000005446PLAN ENTRADA TVD              2009-12-312010-06-290000000143ALTA COMPLEMENTO 3            2009-12-312010-06-29P
002020111140000005446PLAN ENTRADA TVD              2009-12-312010-06-290000000002BAJA SIN CARGO                2010-06-299999-01-01P
002020111160000005447PLAN PLUS TVD                 2010-04-242011-01-100000000002BAJA SIN CARGO                2011-01-109999-01-01P
002020111160000005447PLAN PLUS TVD                 2010-04-242011-01-100000000555ALTA DESCUENTO MOVISTAR       2010-04-242011-01-10P
002020111160000005458PLAN PREMIUM CDF TV NP        2012-02-122012-11-230000000073ALTA 3                        2012-02-122012-11-23P
002020111160000005458PLAN PREMIUM CDF TV NP        2011-10-162012-01-090000000073ALTA 3                        2011-10-162012-01-09P
002020111160000005458PLAN PREMIUM CDF TV NP        2011-10-162012-01-090000000002BAJA SIN CARGO                2012-01-099999-01-01P
002020111160000005458PLAN PREMIUM CDF TV NP        2010-10-172010-12-190000000002BAJA SIN CARGO                2010-12-199999-01-01P
002020111160000005458PLAN PREMIUM CDF TV NP        2010-10-172010-12-190000000209ALTA 2                        2010-10-172010-12-19P
002020111160000005458PLAN PREMIUM CDF TV NP        2011-02-262011-06-170000000073ALTA 3                        2011-02-262011-06-17P
002020111160000005458PLAN PREMIUM CDF TV NP        2011-02-262011-06-170000000002BAJA SIN CARGO                2011-06-179999-01-01P
002020111160000005459PLAN PREMIUM FOX SPORT TV NP  2012-05-162012-11-230000000001ALTA                          2012-05-162012-11-23P
002020111160000005460PLAN PREMIUM ADULTO TV NP     2010-08-242010-10-010000000002BAJA SIN CARGO                2010-10-019999-01-01P
002020111160000005460PLAN PREMIUM ADULTO TV NP     2010-08-242010-10-010000000001ALTA                          2010-08-242010-10-01P
002020111160000006026PLAN PREFERIDO TVD            2011-01-112012-11-230000000555ALTA DESCUENTO MOVISTAR       2011-01-112012-11-23P
002020111160000006166PLAN PREMIUM FOX MAS PACK     2012-02-262012-11-230000000397ALTA 50 X 3 MESES             2012-02-262012-11-23P
002020111340000003516PLAN ENTRADA TVD              2008-05-242012-02-100000000002BAJA SIN CARGO                2012-02-109999-01-01P
002020111340000003516PLAN ENTRADA TVD              2008-05-242012-02-100000000550ALTA COMPLEMENTO              2008-05-242012-02-10P
002020111340000003524PLAN FOX MAS TVD              2008-09-112011-08-150000000002BAJA SIN CARGO                2011-08-159999-01-01P
002020111340000003524PLAN FOX MAS TVD              2008-09-112011-08-150000000408ALTA 50 X 4 MESES             2008-09-112011-08-15P
002020111340000005452PLAN TEMATICO CINE TV NP      2010-04-282012-02-100000000002BAJA SIN CARGO                2012-02-109999-01-01P
002020111340000005452PLAN TEMATICO CINE TV NP      2010-04-282012-02-100000000408ALTA 50 X 4 MESES             2010-04-282012-02-10P
002020111340000005453PLAN TEMATICO FAMILIA TV NP   2010-04-282012-02-100000000002BAJA SIN CARGO                2012-02-109999-01-01P
002020111340000005453PLAN TEMATICO FAMILIA TV NP   2010-04-282012-02-100000000408ALTA 50 X 4 MESES             2010-04-282012-02-10P
002020111340000005689TVD PACK CANALES DE REGALO    2009-07-262010-11-220000000006ALTA GRATUITA                 2009-07-262010-11-22P
002020111340000005689TVD PACK CANALES DE REGALO    2009-07-262010-11-220000000002BAJA SIN CARGO                2010-11-229999-01-01P
002020111340000005689TVD PACK CANALES DE REGALO    2010-11-232012-02-100000000006ALTA GRATUITA                 2010-11-232012-02-10P
002020111340000005689TVD PACK CANALES DE REGALO    2010-11-232012-02-100000000002BAJA SIN CARGO                2012-02-109999-01-01P
002020111340000006166PLAN PREMIUM FOX MAS PACK     2011-08-162012-02-100000000001ALTA                          2011-08-162012-02-10P
002020111340000006166PLAN PREMIUM FOX MAS PACK     2011-08-162012-02-100000000002BAJA SIN CARGO                2012-02-109999-01-01P
002020111370000005444PLAN CINEMANIA TVD            2010-03-122011-05-100000000001ALTA                          2010-03-122011-05-10P
002020111370000005444PLAN CINEMANIA TVD            2010-03-122011-05-100000000002BAJA SIN CARGO                2011-05-109999-01-01P
002020111370000005458PLAN PREMIUM CDF TV NP        2011-04-022011-05-100000000073ALTA 3                        2011-04-022011-05-10P
002020111370000005458PLAN PREMIUM CDF TV NP        2011-04-022011-05-100000000002BAJA SIN CARGO                2011-05-109999-01-01P
002020111370000005975PLAN SENALES HD               2010-09-162011-05-100000000001ALTA                          2010-09-162011-05-10P
002020111370000005975PLAN SENALES HD               2010-09-162011-05-100000000002BAJA SIN CARGO                2011-05-109999-01-01P
002020111370000006166PLAN PREMIUM FOX MAS PACK     2011-03-282011-05-100000000002BAJA SIN CARGO                2011-05-109999-01-01P
002020111370000006166PLAN PREMIUM FOX MAS PACK     2011-03-282011-05-100000000397ALTA 50 X 3 MESES             2011-03-282011-05-10P
002020111380000005446PLAN ENTRADA TVD              2010-01-142010-11-250000000002BAJA SIN CARGO                2010-11-259999-01-01P
002020111380000005446PLAN ENTRADA TVD              2010-01-142010-11-250000000143ALTA COMPLEMENTO 3            2010-01-142010-11-25P
002020111380000005452PLAN TEMATICO CINE TV NP      2010-01-142010-11-250000000209ALTA 2                        2010-01-142010-11-25P
002020111380000005452PLAN TEMATICO CINE TV NP      2010-01-142010-11-250000000002BAJA SIN CARGO                2010-11-259999-01-01P
002020111380000005457PLAN PREMIUM FOX MAS TV NP    2010-04-162010-11-250000000226ALTA 25 X 6                   2010-04-162010-11-25P
002020111380000005457PLAN PREMIUM FOX MAS TV NP    2010-04-162010-11-250000000002BAJA SIN CARGO                2010-11-259999-01-01P
002020111700000003516PLAN ENTRADA TVD              2008-07-242009-03-020000000625ALTA COMPLEMENTO 2            2008-07-242009-03-02P
002020111700000003516PLAN ENTRADA TVD              2008-07-242009-03-020000000002BAJA SIN CARGO                2009-03-029999-01-01P
002020111700000003524PLAN FOX MAS TVD              2008-07-242009-03-020000000605ALTA 12X50                    2008-07-242009-03-02P
002020111700000003524PLAN FOX MAS TVD              2008-07-242009-03-020000000002BAJA SIN CARGO                2009-03-029999-01-01P
002020111700000003527PLAN FSP TVD                  2008-09-012009-03-020000000002BAJA SIN CARGO                2009-03-029999-01-01P
002020111700000003527PLAN FSP TVD                  2008-09-012009-03-020000000260_ ALTA                        2008-09-012009-03-02P
002020111700000003528PLAN CDF TVD                  2008-07-242009-03-020000000001ALTA                          2008-07-242009-03-02P
002020111700000003528PLAN CDF TVD                  2008-07-242009-03-020000000002BAJA SIN CARGO                2009-03-029999-01-01P
002020111740000006026PLAN PREFERIDO TVD            2012-03-262012-05-080000000625ALTA COMPLEMENTO 2            2012-03-262012-05-08P
002020111740000006026PLAN PREFERIDO TVD            2012-03-262012-05-080000000002BAJA SIN CARGO                2012-05-089999-01-01P
002020111790000005446PLAN ENTRADA TVD              2010-03-182010-05-100000000001ALTA                          2010-03-182010-05-10P
002020111790000005446PLAN ENTRADA TVD              2010-03-182010-05-100000000002BAJA SIN CARGO                2010-05-109999-01-01P
002020111810000005444PLAN CINEMANIA TVD            2010-05-172010-07-040000000002BAJA SIN CARGO                2010-07-049999-01-01P
002020111810000005444PLAN CINEMANIA TVD            2010-05-172010-07-040000000555ALTA DESCUENTO MOVISTAR       2010-05-172010-07-04P
002020111810000005445PLAN FUTBOL DE PELICULA TVD   2010-02-042010-05-160000000143ALTA COMPLEMENTO 3            2010-02-042010-05-16P
002020111810000005445PLAN FUTBOL DE PELICULA TVD   2010-02-042010-05-160000000002BAJA SIN CARGO                2010-05-169999-01-01P
002020111810000005446PLAN ENTRADA TVD              2010-01-312010-02-030000000143ALTA COMPLEMENTO 3            2010-01-312010-02-03P
002020111810000005446PLAN ENTRADA TVD              2010-01-312010-02-030000000002BAJA SIN CARGO                2010-02-039999-01-01P
002020111810000005975PLAN SENALES HD               2010-09-152012-11-230000000001ALTA                          2010-09-152012-11-23P
002020111810000006026PLAN PREFERIDO TVD            2010-07-052012-05-060000000555ALTA DESCUENTO MOVISTAR       2010-07-052012-05-06P
002020111810000006026PLAN PREFERIDO TVD            2010-07-052012-05-060000000002BAJA SIN CARGO                2012-05-069999-01-01P
002020111810000006026PLAN PREFERIDO TVD            2012-05-072012-11-230000000625ALTA COMPLEMENTO 2            2012-05-072012-11-23P
002020111850000005272PLAN FUTBOL DE PELICULA TVD   2008-08-132008-09-080000000002BAJA SIN CARGO                2008-09-089999-01-01P
002020111850000005272PLAN FUTBOL DE PELICULA TVD   2008-08-132008-09-080000000619ALTA COMPLEMENTO 2X50         2008-08-132008-09-08P
002020111930000005445PLAN FUTBOL DE PELICULA TVD   2010-02-132010-05-200000000002BAJA SIN CARGO                2010-05-209999-01-01P
002020111930000005445PLAN FUTBOL DE PELICULA TVD   2010-02-132010-05-200000000001ALTA                          2010-02-132010-05-20P
002020111930000005459PLAN PREMIUM FOX SPORT TV NP  2010-03-092010-05-200000000001ALTA                          2010-03-092010-05-20P
002020111930000005459PLAN PREMIUM FOX SPORT TV NP  2010-03-092010-05-200000000002BAJA SIN CARGO                2010-05-209999-01-01P
002020112010000003527PLAN FSP TVD                  2006-12-112007-01-040000000002BAJA SIN CARGO                2007-01-049999-01-01P
002020112010000003527PLAN FSP TVD                  2006-12-112007-01-040000000001ALTA                          2006-12-119999-01-01P
002020112010000003612PLAN TVD PLUS                 2006-09-282011-01-250000000002BAJA SIN CARGO                2011-01-259999-01-01P
002020112010000003612PLAN TVD PLUS                 2006-09-282011-01-250000000466COMPLEMENTO TRIO 1 MES ALTA   2006-09-282011-01-25P
002020112010000005458PLAN PREMIUM CDF TV NP        2012-06-242012-11-230000000073ALTA 3                        2012-06-242012-11-23P
002020112010000005459PLAN PREMIUM FOX SPORT TV NP  2012-05-102012-11-230000000001ALTA                          2012-05-102012-11-23P
002020112010000005975PLAN SENALES HD               2011-02-092012-11-230000000001ALTA                          2011-02-092012-11-23P
002020112010000006026PLAN PREFERIDO TVD            2011-01-262012-11-230000000523ALTA COMPLEMENTO TRIO 3X50    2011-01-262012-11-23P
002020112240000003516PLAN ENTRADA TVD              2007-03-062007-08-060000000002BAJA SIN CARGO                2007-08-069999-01-01P
002020112240000003516PLAN ENTRADA TVD              2007-03-062007-08-060000000422COMPLEMENTO TRIO ALTA         2007-03-062007-08-06P
002020112240000003516PLAN ENTRADA TVD              2006-10-022007-03-060000000093ALTA PACK                     2006-10-022007-03-06P
002020112240000003516PLAN ENTRADA TVD              2006-10-022007-03-060000000002BAJA SIN CARGO                2007-03-069999-01-01P
002020112240000003554TRIO S ADSL +350MI+TVD ENTRADA2006-10-022007-03-060000000002BAJA SIN CARGO                2007-03-069999-01-01P
002020112240000003554TRIO S ADSL +350MI+TVD ENTRADA2006-10-022007-03-060000000478ALTA 1M G 25X2_MOVISTAR       2006-10-029999-01-01P
002020112350000003516PLAN ENTRADA TVD              2008-04-302008-07-110000000550ALTA COMPLEMENTO              2008-04-302008-07-11P
002020112350000003516PLAN ENTRADA TVD              2008-04-302008-07-110000000002BAJA SIN CARGO                2008-07-119999-01-01P
002020112350000003520PLAN CINE TVD                 2008-05-292008-07-110000000002BAJA SIN CARGO                2008-07-119999-01-01P
002020112350000003520PLAN CINE TVD                 2008-05-292008-07-110000000073ALTA 3                        2008-05-292008-07-11P
002020112350000003527PLAN FSP TVD                  2008-04-302008-07-110000000002BAJA SIN CARGO                2008-07-119999-01-01P
002020112350000003527PLAN FSP TVD                  2008-04-302008-07-110000000260_ ALTA                        2008-04-302008-07-11P
002020112440000005444PLAN CINEMANIA TVD            2008-12-272012-11-230000000550ALTA COMPLEMENTO              2008-12-272012-11-23P
002020112440000005453PLAN TEMATICO FAMILIA TV NP   2009-01-092012-11-230000000001ALTA                          2009-01-092012-11-23P
002020112440000005454PLAN TEMATICO MUNDO TV NP     2008-12-272012-11-230000000001ALTA                          2008-12-272012-11-23P
002020112590000003516PLAN ENTRADA TVD              2008-09-212008-09-240000000625ALTA COMPLEMENTO 2            2008-09-212008-09-24P
002020112590000003516PLAN ENTRADA TVD              2008-09-212008-09-240000000002BAJA SIN CARGO                2008-09-249999-01-01P
002020112590000003519PLAN FAMILIA TVD              2008-09-212008-09-240000000073ALTA 3                        2008-09-212008-09-24P
002020112590000003519PLAN FAMILIA TVD              2008-09-212008-09-240000000002BAJA SIN CARGO                2008-09-249999-01-01P
002020112590000003520PLAN CINE TVD                 2008-09-212008-09-240000000002BAJA SIN CARGO                2008-09-249999-01-01P
002020112590000003520PLAN CINE TVD                 2008-09-212008-09-240000000073ALTA 3                        2008-09-212008-09-24P
002020112740000005447PLAN PLUS TVD                 2009-08-212010-04-230000000423ALTA UP TV PLUS_2M            2009-08-212010-04-23P
002020112740000005447PLAN PLUS TVD                 2009-08-212010-04-230000000002BAJA SIN CARGO                2010-04-239999-01-01P
002020112740000005456PLAN PREMIUM HBOMAX TV NP     2009-09-212010-04-230000000001ALTA                          2009-09-212010-04-23P
002020112740000005456PLAN PREMIUM HBOMAX TV NP     2009-09-212010-04-230000000002BAJA SIN CARGO                2010-04-239999-01-01P
002020112810000005446PLAN ENTRADA TVD              2009-03-252010-08-220000000625ALTA COMPLEMENTO 2            2009-03-252010-08-22P
002020112810000005446PLAN ENTRADA TVD              2009-03-252010-08-220000000002BAJA SIN CARGO                2010-08-229999-01-01P
002020112810000005457PLAN PREMIUM FOX MAS TV NP    2009-03-252011-05-270000000056ALTA 2 MESES GRATIS           2009-03-252011-05-27P
002020112810000005457PLAN PREMIUM FOX MAS TV NP    2009-03-252011-05-270000000002BAJA SIN CARGO                2011-05-279999-01-01P
002020112810000005458PLAN PREMIUM CDF TV NP        2009-03-252011-01-040000000002BAJA SIN CARGO                2011-01-049999-01-01P
002020112810000005458PLAN PREMIUM CDF TV NP        2009-03-252011-01-040000000001ALTA                          2009-03-252011-01-04P
002020112810000005458PLAN PREMIUM CDF TV NP        2011-01-052012-11-230000000073ALTA 3                        2011-01-052012-11-23P
002020112810000005459PLAN PREMIUM FOX SPORT TV NP  2009-03-252012-11-230000000001ALTA                          2009-03-252012-11-23P
002020112810000005689TVD PACK CANALES DE REGALO    2010-11-192012-11-230000000006ALTA GRATUITA                 2010-11-192012-11-23P
002020112810000005689TVD PACK CANALES DE REGALO    2009-07-222010-11-180000000002BAJA SIN CARGO                2010-11-189999-01-01P
002020112810000005689TVD PACK CANALES DE REGALO    2009-07-222010-11-180000000006ALTA GRATUITA                 2009-07-222010-11-18P
002020112810000006025PLAN BASICO TVD               2010-08-232012-11-230000000555ALTA DESCUENTO MOVISTAR       2010-08-232012-11-23P
002020112810000006166PLAN PREMIUM FOX MAS PACK     2011-05-282012-11-230000000001ALTA                          2011-05-282012-11-23P
002020112890000003612PLAN TVD PLUS                 2007-04-102008-12-250000000002BAJA SIN CARGO                2008-12-259999-01-01P
002020112890000003612PLAN TVD PLUS                 2007-04-102008-12-250000000466COMPLEMENTO TRIO 1 MES ALTA   2007-04-102008-12-25P
002020112890000005447PLAN PLUS TVD                 2008-12-292009-03-030000000550ALTA COMPLEMENTO              2008-12-292009-03-03P
002020112890000005447PLAN PLUS TVD                 2008-12-292009-03-030000000002BAJA SIN CARGO                2009-03-039999-01-01P
002020112890000005458PLAN PREMIUM CDF TV NP        2008-12-292009-03-030000000002BAJA SIN CARGO                2009-03-039999-01-01P
002020112890000005458PLAN PREMIUM CDF TV NP        2008-12-292009-03-030000000001ALTA                          2008-12-292009-03-03P
002020113020000003516PLAN ENTRADA TVD              2006-10-162007-09-100000000002BAJA SIN CARGO                2007-09-109999-01-01P
002020113020000003516PLAN ENTRADA TVD              2006-10-162007-09-100000000422COMPLEMENTO TRIO ALTA         2006-10-162007-09-10P
002020113020000003519PLAN FAMILIA TVD              2007-02-162007-08-300000000002BAJA SIN CARGO                2007-08-309999-01-01P
002020113020000003519PLAN FAMILIA TVD              2007-02-162007-08-300000000001ALTA                          2007-02-162007-08-30P
002020113020000003529PLAN HBO TVD                  2007-02-122007-02-160000000001ALTA                          2007-02-129999-01-01P
002020113020000003529PLAN HBO TVD                  2007-02-122007-02-160000000002BAJA SIN CARGO                2007-02-169999-01-01P
002020113020000003920PLAN MAS TVD                  2007-02-122007-08-300000000056ALTA 2 MESES GRATIS           2007-02-122007-08-30P
002020113020000003920PLAN MAS TVD                  2007-02-122007-08-300000000002BAJA SIN CARGO                2007-08-309999-01-01P
002020113210000005447PLAN PLUS TVD                 2010-06-092010-07-130000000253ALTA PROMOCION                2010-06-092010-07-13P
002020113210000005447PLAN PLUS TVD                 2010-06-092010-07-130000000002BAJA SIN CARGO                2010-07-139999-01-01P
002020113380000005446PLAN ENTRADA TVD              2009-03-212009-06-230000000625ALTA COMPLEMENTO 2            2009-03-212009-06-23P
002020113380000005446PLAN ENTRADA TVD              2009-03-212009-06-230000000002BAJA SIN CARGO                2009-06-239999-01-01P
002020113380000005457PLAN PREMIUM FOX MAS TV NP    2009-03-212009-06-230000000002BAJA SIN CARGO                2009-06-239999-01-01P
002020113380000005457PLAN PREMIUM FOX MAS TV NP    2009-03-212009-06-230000000056ALTA 2 MESES GRATIS           2009-03-212009-06-23P
002020113420000005456PLAN PREMIUM HBOMAX TV NP     2010-09-242011-08-020000000002BAJA SIN CARGO                2011-08-029999-01-01P
002020113420000005456PLAN PREMIUM HBOMAX TV NP     2010-09-242011-08-020000000209ALTA 2                        2010-09-242011-08-02P
002020113420000005457PLAN PREMIUM FOX MAS TV NP    2010-09-242010-09-240000000002BAJA SIN CARGO                2010-09-249999-01-01P
002020113420000005457PLAN PREMIUM FOX MAS TV NP    2010-09-242010-09-240000000001ALTA                          2010-09-242010-09-24P
002020113420000005457PLAN PREMIUM FOX MAS TV NP    2010-09-242011-08-020000000237ALTA PROMOCION 6 MESES        2010-09-242011-08-02P
002020113420000005457PLAN PREMIUM FOX MAS TV NP    2010-09-242011-08-020000000002BAJA SIN CARGO                2011-08-029999-01-01P
002020113420000005460PLAN PREMIUM ADULTO TV NP     2010-09-252011-08-020000000002BAJA SIN CARGO                2011-08-029999-01-01P
002020113420000005460PLAN PREMIUM ADULTO TV NP     2010-09-252011-08-020000000001ALTA                          2010-09-252011-08-02P
002020113420000006026PLAN PREFERIDO TVD            2010-09-242011-08-020000000002BAJA SIN CARGO                2011-08-029999-01-01P
002020113420000006026PLAN PREFERIDO TVD            2010-09-242011-08-020000000681PROM 3 MESES TV PAQUETIZADA   2010-09-242011-08-02P
002020113500000003516PLAN ENTRADA TVD              2008-08-222009-06-190000000619ALTA COMPLEMENTO 2X50         2008-08-222009-06-19P
002020113500000003516PLAN ENTRADA TVD              2008-08-222009-06-190000000002BAJA SIN CARGO                2009-06-199999-01-01P
002020113500000005453PLAN TEMATICO FAMILIA TV NP   2009-01-262009-06-190000000001ALTA                          2009-01-262009-06-19P
002020113500000005453PLAN TEMATICO FAMILIA TV NP   2009-01-262009-06-190000000002BAJA SIN CARGO                2009-06-199999-01-01P
002020113730000005458PLAN PREMIUM CDF TV NP        2010-08-192011-05-220000000002BAJA SIN CARGO                2011-05-229999-01-01P
002020113730000005458PLAN PREMIUM CDF TV NP        2010-08-192011-05-220000000001ALTA                          2010-08-192011-05-22P
002020113730000005459PLAN PREMIUM FOX SPORT TV NP  2010-08-192011-05-220000000002BAJA SIN CARGO                2011-05-229999-01-01P
002020113730000005459PLAN PREMIUM FOX SPORT TV NP  2010-08-192011-05-220000000001ALTA                          2010-08-192011-05-22P
002020113730000005975PLAN SENALES HD               2010-08-192011-02-030000000002BAJA SIN CARGO                2011-02-039999-01-01P
002020113730000005975PLAN SENALES HD               2010-08-192011-02-030000000001ALTA                          2010-08-192011-02-03P
002020113730000006026PLAN PREFERIDO TVD            2010-08-192011-05-220000000681PROM 3 MESES TV PAQUETIZADA   2010-08-192011-05-22P
002020113730000006026PLAN PREFERIDO TVD            2010-08-192011-05-220000000002BAJA SIN CARGO                2011-05-229999-01-01P
002020114060000005445PLAN FUTBOL DE PELICULA TVD   2009-10-152009-11-160000000002BAJA SIN CARGO                2009-11-169999-01-01P
002020114060000005445PLAN FUTBOL DE PELICULA TVD   2009-10-152009-11-160000000625ALTA COMPLEMENTO 2            2009-10-152009-11-16P
002020114060000005446PLAN ENTRADA TVD              2009-11-172010-01-210000000002BAJA SIN CARGO                2010-01-219999-01-01P
002020114060000005446PLAN ENTRADA TVD              2009-11-172010-01-210000000143ALTA COMPLEMENTO 3            2009-11-172010-01-21P
002020114060000005452PLAN TEMATICO CINE TV NP      2009-11-172010-01-210000000209ALTA 2                        2009-11-172010-01-21P
002020114060000005452PLAN TEMATICO CINE TV NP      2009-11-172010-01-210000000002BAJA SIN CARGO                2010-01-219999-01-01P
002020114060000005453PLAN TEMATICO FAMILIA TV NP   2009-10-152010-01-210000000002BAJA SIN CARGO                2010-01-219999-01-01P
002020114060000005453PLAN TEMATICO FAMILIA TV NP   2009-10-152010-01-210000000235ALTA PROMOCION 4 MESES        2009-10-152010-01-21P
002020114060000005456PLAN PREMIUM HBOMAX TV NP     2009-11-172010-01-210000000060ALTA 2 M X 50 PORCTO DESCTO   2009-11-172010-01-21P
002020114060000005456PLAN PREMIUM HBOMAX TV NP     2009-11-172010-01-210000000002BAJA SIN CARGO                2010-01-219999-01-01P
002020114060000005457PLAN PREMIUM FOX MAS TV NP    2009-11-172010-01-210000000226ALTA 25 X 6                   2009-11-172010-01-21P
002020114060000005457PLAN PREMIUM FOX MAS TV NP    2009-11-172010-01-210000000002BAJA SIN CARGO                2010-01-219999-01-01P
002020114060000005458PLAN PREMIUM CDF TV NP        2009-11-172010-01-210000000002BAJA SIN CARGO                2010-01-219999-01-01P
002020114060000005458PLAN PREMIUM CDF TV NP        2009-11-172010-01-210000000001ALTA                          2009-11-172010-01-21P
002020114180000005446PLAN ENTRADA TVD              2010-07-032010-07-210000000555ALTA DESCUENTO MOVISTAR       2010-07-032010-07-21P
002020114180000005446PLAN ENTRADA TVD              2010-07-032010-07-210000000002BAJA SIN CARGO                2010-07-219999-01-01P
002020114220000003525PLAN HBO MAX TVD              2008-07-012009-07-120000000002BAJA SIN CARGO                2009-07-129999-01-01P
002020114220000003525PLAN HBO MAX TVD              2008-07-012009-07-120000000001ALTA                          2008-07-012009-07-12P
002020114220000003612PLAN TVD PLUS                 2008-07-012012-11-230000000060ALTA 2 M X 50 PORCTO DESCTO   2008-07-012012-11-23P
002020114220000003920PLAN MAS TVD                  2009-09-022012-11-230000000006ALTA GRATUITA                 2009-09-022012-11-23P
002020114220000003920PLAN MAS TVD                  2008-07-012009-09-010000000001ALTA                          2008-07-012009-09-01P
002020114220000003920PLAN MAS TVD                  2008-07-012009-09-010000000002BAJA SIN CARGO                2009-09-019999-01-01P
002020114220000005457PLAN PREMIUM FOX MAS TV NP    2009-01-022009-07-120000000056ALTA 2 MESES GRATIS           2009-01-022009-07-12P
002020114220000005457PLAN PREMIUM FOX MAS TV NP    2009-01-022009-07-120000000002BAJA SIN CARGO                2009-07-129999-01-01P
002020114650000005445PLAN FUTBOL DE PELICULA TVD   2009-09-262010-11-110000000625ALTA COMPLEMENTO 2            2009-09-262010-11-11P
002020114650000005445PLAN FUTBOL DE PELICULA TVD   2009-09-262010-11-110000000002BAJA SIN CARGO                2010-11-119999-01-01P
002020114650000005453PLAN TEMATICO FAMILIA TV NP   2009-09-262010-11-110000000001ALTA                          2009-09-262010-11-11P
002020114650000005453PLAN TEMATICO FAMILIA TV NP   2009-09-262010-11-110000000002BAJA SIN CARGO                2010-11-119999-01-01P
002020114650000005458PLAN PREMIUM CDF TV NP        2011-08-052012-11-230000000073ALTA 3                        2011-08-052012-11-23P
002020114650000005458PLAN PREMIUM CDF TV NP        2011-02-232011-02-270000000073ALTA 3                        2011-02-232011-02-27P
002020114650000005458PLAN PREMIUM CDF TV NP        2011-02-232011-02-270000000002BAJA SIN CARGO                2011-02-279999-01-01P
002020114650000005459PLAN PREMIUM FOX SPORT TV NP  2010-08-032010-11-110000000002BAJA SIN CARGO                2010-11-119999-01-01P
002020114650000005459PLAN PREMIUM FOX SPORT TV NP  2010-08-032010-11-110000000001ALTA                          2010-08-032010-11-11P
002020114650000005460PLAN PREMIUM ADULTO TV NP     2011-02-172011-02-220000000017BAJA CON CARGO                2011-02-229999-01-01P
002020114650000005460PLAN PREMIUM ADULTO TV NP     2011-02-172011-02-220000000001ALTA                          2011-02-172011-02-22P
002020114650000005975PLAN SENALES HD               2011-10-212012-11-230000000001ALTA                          2011-10-212012-11-23P
002020114650000006026PLAN PREFERIDO TVD            2010-11-122011-08-090000000002BAJA SIN CARGO                2011-08-099999-01-01P
002020114650000006026PLAN PREFERIDO TVD            2010-11-122011-08-090000000555ALTA DESCUENTO MOVISTAR       2010-11-122011-08-09P
002020114650000006026PLAN PREFERIDO TVD            2011-08-102012-11-230000000625ALTA COMPLEMENTO 2            2011-08-102012-11-23P
002020114740000003516PLAN ENTRADA TVD              2006-12-112008-05-270000000421COMPLEMENTO DUO ALTA          2006-12-112008-05-27P
002020114740000003516PLAN ENTRADA TVD              2006-12-112008-05-270000000002BAJA SIN CARGO                2008-05-279999-01-01P
002020114770000005446PLAN ENTRADA TVD              2010-02-252012-01-090000000002BAJA SIN CARGO                2012-01-099999-01-01P
002020114770000005446PLAN ENTRADA TVD              2010-02-252012-01-090000000001ALTA                          2010-02-252012-01-09P
002020114770000006026PLAN PREFERIDO TVD            2012-01-102012-11-230000000625ALTA COMPLEMENTO 2            2012-01-102012-11-23P
002020114820000005446PLAN ENTRADA TVD              2009-11-192010-06-290000000145ALTA TRIO TANGA ENTRADA       2009-11-192010-06-29P
002020114820000005446PLAN ENTRADA TVD              2009-11-192010-06-290000000002BAJA SIN CARGO                2010-06-299999-01-01P
002020114820000005452PLAN TEMATICO CINE TV NP      2010-03-032010-06-290000000002BAJA SIN CARGO                2010-06-299999-01-01P
002020114820000005452PLAN TEMATICO CINE TV NP      2010-03-032010-06-290000000209ALTA 2                        2010-03-032010-06-29P
002020114850000005459PLAN PREMIUM FOX SPORT TV NP  2011-11-172012-01-110000000002BAJA SIN CARGO                2012-01-119999-01-01P
002020114850000005459PLAN PREMIUM FOX SPORT TV NP  2011-11-172012-01-110000000001ALTA                          2011-11-172012-01-11P
002020114850000006026PLAN PREFERIDO TVD            2010-12-292012-03-130000000523ALTA COMPLEMENTO TRIO 3X50    2010-12-292012-03-13P
002020114850000006026PLAN PREFERIDO TVD            2010-12-292012-03-130000000002BAJA SIN CARGO                2012-03-139999-01-01P
002020114850000006026PLAN PREFERIDO TVD            2012-03-142012-11-230000000625ALTA COMPLEMENTO 2            2012-03-142012-11-23P
002020115120000005446PLAN ENTRADA TVD              2009-02-132010-10-130000000002BAJA SIN CARGO                2010-10-139999-01-01P
002020115120000005446PLAN ENTRADA TVD              2009-02-132010-10-130000000550ALTA COMPLEMENTO              2009-02-132010-10-13P
002020115120000005454PLAN TEMATICO MUNDO TV NP     2009-11-232010-10-130000000209ALTA 2                        2009-11-232010-10-13P
002020115120000005454PLAN TEMATICO MUNDO TV NP     2009-11-232010-10-130000000002BAJA SIN CARGO                2010-10-139999-01-01P
002020115120000005457PLAN PREMIUM FOX MAS TV NP    2009-02-132009-05-150000000408ALTA 50 X 4 MESES             2009-02-132009-05-15P
002020115120000005457PLAN PREMIUM FOX MAS TV NP    2009-02-132009-05-150000000002BAJA SIN CARGO                2009-05-159999-01-01P
002020115120000005458PLAN PREMIUM CDF TV NP        2010-11-302012-11-210000000002BAJA SIN CARGO                2012-11-219999-01-01P
002020115120000005458PLAN PREMIUM CDF TV NP        2010-11-302012-11-210000000073ALTA 3                        2010-11-302012-11-21P
002020115120000005458PLAN PREMIUM CDF TV NP        2009-02-132010-11-290000000002BAJA SIN CARGO                2010-11-299999-01-01P
002020115120000005458PLAN PREMIUM CDF TV NP        2009-02-132010-11-290000000001ALTA                          2009-02-132010-11-29P
002020115120000005459PLAN PREMIUM FOX SPORT TV NP  2009-02-132012-11-210000000002BAJA SIN CARGO                2012-11-219999-01-01P
002020115120000005459PLAN PREMIUM FOX SPORT TV NP  2009-02-132012-11-210000000001ALTA                          2009-02-132012-11-21P
002020115120000005689TVD PACK CANALES DE REGALO    2009-07-222012-11-230000000006ALTA GRATUITA                 2009-07-222012-11-23P
002020115120000005689TVD PACK CANALES DE REGALO    2009-07-222012-11-230000000006ALTA GRATUITA                 2009-07-222012-11-23P
002020115120000005968PLAN CDF HD                   2012-11-222012-11-230000000652ALTA 4                        2012-11-222012-11-23P
002020115120000005975PLAN SENALES HD               2012-11-222012-11-230000000001ALTA                          2012-11-222012-11-23P
002020115120000006026PLAN PREFERIDO TVD            2010-10-142012-08-070000000555ALTA DESCUENTO MOVISTAR       2010-10-142012-08-07P
002020115120000006026PLAN PREFERIDO TVD            2010-10-142012-08-070000000002BAJA SIN CARGO                2012-08-079999-01-01P
002020115120000006026PLAN PREFERIDO TVD            2012-08-082012-11-230000000625ALTA COMPLEMENTO 2            2012-08-082012-11-23P
002020115120000006146PLAN FOX SPORT HD             2012-11-222012-11-230000000001ALTA                          2012-11-222012-11-23P
002020115120000006282LNB OPTIMIZADO                2012-11-222012-11-230000000260_ ALTA                        2012-11-222012-11-23P
002020115130000006026PLAN PREFERIDO TVD            2011-05-062011-10-140000000625ALTA COMPLEMENTO 2            2011-05-062011-10-14P
002020115130000006026PLAN PREFERIDO TVD            2011-05-062011-10-140000000002BAJA SIN CARGO                2011-10-149999-01-01P
002020115200000003516PLAN ENTRADA TVD              2008-01-242008-01-240000000260_ ALTA                        2008-01-242008-01-24P
002020115200000003516PLAN ENTRADA TVD              2008-01-242008-01-240000000002BAJA SIN CARGO                2008-01-249999-01-01P
002020115200000003519PLAN FAMILIA TVD              2008-01-242008-01-240000000209ALTA 2                        2008-01-242008-01-24P
002020115200000003519PLAN FAMILIA TVD              2008-01-242008-01-240000000002BAJA SIN CARGO                2008-01-249999-01-01P
002020115200000003520PLAN CINE TVD                 2008-01-242008-01-240000000002BAJA SIN CARGO                2008-01-249999-01-01P
002020115200000003520PLAN CINE TVD                 2008-01-242008-01-240000000209ALTA 2                        2008-01-242008-01-24P
002020115360000005446PLAN ENTRADA TVD              2010-02-222010-10-070000000001ALTA                          2010-02-222010-10-07P
002020115360000005446PLAN ENTRADA TVD              2010-02-222010-10-070000000002BAJA SIN CARGO                2010-10-079999-01-01P
002020115370000005645PLAN CINEMANIA POWER TVD      2010-05-012010-08-070000000555ALTA DESCUENTO MOVISTAR       2010-05-012010-08-07P
002020115370000005645PLAN CINEMANIA POWER TVD      2010-05-012010-08-070000000002BAJA SIN CARGO                2010-08-079999-01-01P
002020115440000003516PLAN ENTRADA TVD              2007-11-232008-09-170000000556ALTA COMPLEMENTO 2X100        2007-11-232008-09-17P
002020115440000003516PLAN ENTRADA TVD              2007-11-232008-09-170000000002BAJA SIN CARGO                2008-09-179999-01-01P
002020115440000003519PLAN FAMILIA TVD              2007-11-292008-09-170000000002BAJA SIN CARGO                2008-09-179999-01-01P
002020115440000003519PLAN FAMILIA TVD              2007-11-292008-09-170000000209ALTA 2                        2007-11-292008-09-17P
002020115440000003520PLAN CINE TVD                 2007-11-232008-09-170000000209ALTA 2                        2007-11-232008-09-17P
002020115440000003520PLAN CINE TVD                 2007-11-232008-09-170000000002BAJA SIN CARGO                2008-09-179999-01-01P
002020115440000003529PLAN HBO TVD                  2007-11-232008-09-170000000002BAJA SIN CARGO                2008-09-179999-01-01P
002020115440000003529PLAN HBO TVD                  2007-11-232008-09-170000000001ALTA                          2007-11-232008-09-17P
002020115460000005444PLAN CINEMANIA TVD            2010-03-112011-05-100000000001ALTA                          2010-03-112011-05-10P
002020115460000005444PLAN CINEMANIA TVD            2010-03-112011-05-100000000002BAJA SIN CARGO                2011-05-109999-01-01P
002020115460000005458PLAN PREMIUM CDF TV NP        2010-11-212011-05-100000000002BAJA SIN CARGO                2011-05-109999-01-01P
002020115460000005458PLAN PREMIUM CDF TV NP        2010-11-212011-05-100000000073ALTA 3                        2010-11-212011-05-10P
002020115460000005460PLAN PREMIUM ADULTO TV NP     2010-08-052011-05-100000000002BAJA SIN CARGO                2011-05-109999-01-01P
002020115460000005460PLAN PREMIUM ADULTO TV NP     2010-08-052011-05-100000000001ALTA                          2010-08-052011-05-10P
002020115520000006026PLAN PREFERIDO TVD            2010-10-302012-05-310000000126PROM 4 MESES TV PAQUETIZADA   2010-10-302012-05-31P
002020115520000006026PLAN PREFERIDO TVD            2010-10-302012-05-310000000002BAJA SIN CARGO                2012-05-319999-01-01P
002020115520000006026PLAN PREFERIDO TVD            2012-06-012012-11-230000000625ALTA COMPLEMENTO 2            2012-06-012012-11-23P
002020115570000005447PLAN PLUS TVD                 2010-04-292010-10-070000000002BAJA SIN CARGO                2010-10-079999-01-01P
002020115570000005447PLAN PLUS TVD                 2010-04-292010-10-070000000641ALTA CON PLAN PLUS            2010-04-292010-10-07P
002020115650000005446PLAN ENTRADA TVD              2009-04-202011-11-270000000002BAJA SIN CARGO                2011-11-279999-01-01P
002020115650000005446PLAN ENTRADA TVD              2009-04-202011-11-270000000625ALTA COMPLEMENTO 2            2009-04-202011-11-27P
002020115650000005453PLAN TEMATICO FAMILIA TV NP   2010-06-012011-11-270000000002BAJA SIN CARGO                2011-11-279999-01-01P
002020115650000005453PLAN TEMATICO FAMILIA TV NP   2010-06-012011-11-270000000408ALTA 50 X 4 MESES             2010-06-012011-11-27P
002020115650000005458PLAN PREMIUM CDF TV NP        2010-11-302012-10-190000000073ALTA 3                        2010-11-302012-10-19P
002020115650000005458PLAN PREMIUM CDF TV NP        2009-04-202010-11-290000000002BAJA SIN CARGO                2010-11-299999-01-01P
002020115650000005458PLAN PREMIUM CDF TV NP        2009-04-202010-11-290000000001ALTA                          2009-04-202010-11-29P
002020115650000005459PLAN PREMIUM FOX SPORT TV NP  2009-04-202012-10-190000000001ALTA                          2009-04-202012-10-19P
002020115650000005460PLAN PREMIUM ADULTO TV NP     2012-06-212012-10-190000000001ALTA                          2012-06-212012-10-19P
002020115650000006026PLAN PREFERIDO TVD            2011-11-282012-10-190000000625ALTA COMPLEMENTO 2            2011-11-282012-10-19P
002020115830000005444PLAN CINEMANIA TVD            2010-01-222011-11-050000000002BAJA SIN CARGO                2011-11-059999-01-01P
002020115830000005444PLAN CINEMANIA TVD            2010-01-222011-11-050000000143ALTA COMPLEMENTO 3            2010-01-222011-11-05P
002020115830000005458PLAN PREMIUM CDF TV NP        2010-02-062010-03-180000000002BAJA SIN CARGO                2010-03-189999-01-01P
002020115830000005458PLAN PREMIUM CDF TV NP        2010-02-062010-03-180000000209ALTA 2                        2010-02-062010-03-18P
002020115830000005458PLAN PREMIUM CDF TV NP        2011-02-052011-11-050000000002BAJA SIN CARGO                2011-11-059999-01-01P
002020115830000005458PLAN PREMIUM CDF TV NP        2011-02-052011-11-050000000073ALTA 3                        2011-02-052011-11-05P
002020115830000005459PLAN PREMIUM FOX SPORT TV NP  2011-09-212011-11-050000000002BAJA SIN CARGO                2011-11-059999-01-01P
002020115830000005459PLAN PREMIUM FOX SPORT TV NP  2011-09-212011-11-050000000001ALTA                          2011-09-212011-11-05P
002020115860000005447PLAN PLUS TVD                 2010-05-152012-08-220000000002BAJA SIN CARGO                2012-08-229999-01-01P
002020115860000005447PLAN PLUS TVD                 2010-05-152012-08-220000000641ALTA CON PLAN PLUS            2010-05-152012-08-22P
002020115860000005459PLAN PREMIUM FOX SPORT TV NP  2011-11-292011-12-260000000001ALTA                          2011-11-292011-12-26P
002020115860000005459PLAN PREMIUM FOX SPORT TV NP  2011-11-292011-12-260000000002BAJA SIN CARGO                2011-12-269999-01-01P
002020115890000005456PLAN PREMIUM HBOMAX TV NP     2011-11-122012-01-030000000056ALTA 2 MESES GRATIS           2011-11-122012-01-03P
002020115890000005456PLAN PREMIUM HBOMAX TV NP     2011-11-122012-01-030000000002BAJA SIN CARGO                2012-01-039999-01-01P
002020115890000006026PLAN PREFERIDO TVD            2011-11-122012-01-030000000002BAJA SIN CARGO                2012-01-039999-01-01P
002020115890000006026PLAN PREFERIDO TVD            2011-11-122012-01-030000000625ALTA COMPLEMENTO 2            2011-11-122012-01-03P
002020115930000005645PLAN CINEMANIA POWER TVD      2010-02-042010-10-070000000002BAJA SIN CARGO                2010-10-079999-01-01P
002020115930000005645PLAN CINEMANIA POWER TVD      2010-02-042010-10-070000000143ALTA COMPLEMENTO 3            2010-02-042010-10-07P
002020116040000005975PLAN SENALES HD               2012-01-122012-01-120000000001ALTA                          2012-01-122012-01-12P
002020116040000005975PLAN SENALES HD               2012-01-122012-01-120000000002BAJA SIN CARGO                2012-01-129999-01-01P
002020116040000006075PLAN TV TOP                   2012-01-122012-01-120000000002BAJA SIN CARGO                2012-01-129999-01-01P
002020116040000006075PLAN TV TOP                   2012-01-122012-01-120000000559ALTA DESC X 3M MOVISTAR       2012-01-122012-01-12P
002020116040000006282LNB OPTIMIZADO                2012-01-122012-01-120000000002BAJA SIN CARGO                2012-01-129999-01-01P
002020116040000006282LNB OPTIMIZADO                2012-01-122012-01-120000000260_ ALTA                        2012-01-122012-01-12P
002020116070000006026PLAN PREFERIDO TVD            2011-06-062012-11-230000000625ALTA COMPLEMENTO 2            2011-06-062012-11-23P
002020116120000005446PLAN ENTRADA TVD              2010-06-082010-07-050000000555ALTA DESCUENTO MOVISTAR       2010-06-082010-07-05P
002020116120000005446PLAN ENTRADA TVD              2010-06-082010-07-050000000002BAJA SIN CARGO                2010-07-059999-01-01P
002020116120000005456PLAN PREMIUM HBOMAX TV NP     2010-06-082010-07-050000000001ALTA                          2010-06-082010-07-05P
002020116120000005456PLAN PREMIUM HBOMAX TV NP     2010-06-082010-07-050000000002BAJA SIN CARGO                2010-07-059999-01-01P
002020116390000003516PLAN ENTRADA TVD              2007-03-262007-12-260000000002BAJA SIN CARGO                2007-12-269999-01-01P
002020116390000003516PLAN ENTRADA TVD              2007-03-262007-12-260000000422COMPLEMENTO TRIO ALTA         2007-03-262007-12-26P
002020116390000003524PLAN FOX MAS TVD              2007-04-282007-12-260000000001ALTA                          2007-04-282007-12-26P
002020116390000003524PLAN FOX MAS TVD              2007-04-282007-12-260000000002BAJA SIN CARGO                2007-12-269999-01-01P
002020116390000003529PLAN HBO TVD                  2007-03-262007-04-280000000001ALTA                          2007-03-262007-04-28P
002020116390000003529PLAN HBO TVD                  2007-03-262007-04-280000000002BAJA SIN CARGO                2007-04-289999-01-01P
002020116420000003516PLAN ENTRADA TVD              2007-06-212012-11-230000000523ALTA COMPLEMENTO TRIO 3X50    2007-06-212012-11-23P
002020116420000003528PLAN CDF TVD                  2008-02-092011-01-040000000001ALTA                          2008-02-092011-01-04P
002020116420000003528PLAN CDF TVD                  2008-02-092011-01-040000000002BAJA SIN CARGO                2011-01-049999-01-01P
002020116420000005458PLAN PREMIUM CDF TV NP        2011-01-052011-03-130000000002BAJA SIN CARGO                2011-03-139999-01-01P
002020116420000005458PLAN PREMIUM CDF TV NP        2011-01-052011-03-130000000073ALTA 3                        2011-01-052011-03-13P
002020116420000005458PLAN PREMIUM CDF TV NP        2012-08-192012-11-230000000073ALTA 3                        2012-08-192012-11-23P
002020116420000005459PLAN PREMIUM FOX SPORT TV NP  2012-06-142012-07-120000000001ALTA                          2012-06-142012-07-12P
002020116420000005459PLAN PREMIUM FOX SPORT TV NP  2012-06-142012-07-120000000002BAJA SIN CARGO                2012-07-129999-01-01P
002020116420000005459PLAN PREMIUM FOX SPORT TV NP  2012-08-192012-08-190000000002BAJA SIN CARGO                2012-08-192012-08-19P
002020116420000005459PLAN PREMIUM FOX SPORT TV NP  2012-08-192012-08-190000000001ALTA                          2012-08-192012-08-19P
002020116420000005689TVD PACK CANALES DE REGALO    2009-07-222010-11-180000000006ALTA GRATUITA                 2009-07-222010-11-18P
002020116420000005689TVD PACK CANALES DE REGALO    2009-07-222010-11-180000000002BAJA SIN CARGO                2010-11-189999-01-01P
002020116420000005689TVD PACK CANALES DE REGALO    2010-11-192012-11-230000000006ALTA GRATUITA                 2010-11-192012-11-23P
002020116420000005689TVD PACK CANALES DE REGALO    2009-07-222012-11-230000000006ALTA GRATUITA                 2009-07-222012-11-23P
002020116470000003516PLAN ENTRADA TVD              2008-03-142009-10-030000000550ALTA COMPLEMENTO              2008-03-142009-10-03P
002020116470000003516PLAN ENTRADA TVD              2008-03-142009-10-030000000002BAJA SIN CARGO                2009-10-039999-01-01P
002020116470000003518PLAN MUNDO TVD                2008-05-022009-10-030000000002BAJA SIN CARGO                2009-10-039999-01-01P
002020116470000003518PLAN MUNDO TVD                2008-05-022009-10-030000000209ALTA 2                        2008-05-022009-10-03P
002020116470000003519PLAN FAMILIA TVD              2008-03-142009-10-030000000002BAJA SIN CARGO                2009-10-039999-01-01P
002020116470000003519PLAN FAMILIA TVD              2008-03-142009-10-030000000209ALTA 2                        2008-03-142009-10-03P
002020116470000003525PLAN HBO MAX TVD              2008-03-142008-09-250000000001ALTA                          2008-03-142008-09-25P
002020116470000003525PLAN HBO MAX TVD              2008-03-142008-09-250000000002BAJA SIN CARGO                2008-09-259999-01-01P
002020116470000003528PLAN CDF TVD                  2008-05-022008-09-250000000002BAJA SIN CARGO                2008-09-259999-01-01P
002020116470000003528PLAN CDF TVD                  2008-05-022008-09-250000000001ALTA                          2008-05-022008-09-25P
002020116470000005458PLAN PREMIUM CDF TV NP        2009-07-042009-10-030000000002BAJA SIN CARGO                2009-10-039999-01-01P
002020116470000005458PLAN PREMIUM CDF TV NP        2009-07-042009-10-030000000001ALTA                          2009-07-042009-10-03P
002020116530000003516PLAN ENTRADA TVD              2008-03-052011-08-280000000550ALTA COMPLEMENTO              2008-03-052011-08-28P
002020116530000003516PLAN ENTRADA TVD              2008-03-052011-08-280000000002BAJA SIN CARGO                2011-08-289999-01-01P
002020116530000003518PLAN MUNDO TVD                2008-03-052009-04-020000000002BAJA SIN CARGO                2009-04-029999-01-01P
002020116530000003518PLAN MUNDO TVD                2008-03-052009-04-020000000209ALTA 2                        2008-03-052009-04-02P
002020116530000003519PLAN FAMILIA TVD              2008-03-052009-04-020000000002BAJA SIN CARGO                2009-04-029999-01-01P
